:020000021000EC
:102000005076002051F9010035F9010035F9010041
:1020100000000000000000000000000000000000C0
:102020000000000000000000000000002566010024
:10203000000000000000000001670100456701008A
:1020400035F9010035F9010035F901002DDA0100FB
:10205000ADD6010035F90100F525010035F9010083
:10206000A926010055DE010065DE010075DE0100D4
:1020700085DE010095DE0100A5DE010005F9010005
:1020800015F9010025F901001D5101002D51010034
:102090003D510100000000000000000035F9010082
:1020A00035F901004D25010035F9010035F9010030
:1020B0000000000010B5064C2378002B07D1054B1B
:1020C000002B02D0044800E000BF0123237010BDA4
:1020D000B00200200000000084B10200084B10B5DF
:1020E000002B03D00749084800E000BF07480368F9
:1020F000002B00D110BD064B002BFBD09847F9E711
:1021000000000000B402002084B1020084B102008B
:102110000000000010B50022002302704270002170
:102120004280017103760262C26182600373C0243F
:102130006401C481037443748374C37403752A24D3
:10214000035543758375063C0355C2840285C175EA
:102150002B23C1540133C15410BD0000F0B5D64645
:102160004F464646C0B596B0070016000160CB4A00
:10217000106A80235B02034313620B780520DB07A0
:1021800005D516B01CBC90469946A246F0BD0B780A
:1021900017309B07F5D473783B71002B04D1C04AEC
:1021A000136C04210B4313643B68984633786A46EA
:1021B000137069461E20BB4B98471E20BA4B9847A8
:1021C0002C23F25C002A54D0013BF55C337BEB18E6
:1021D000DBB2D118C9B28B4221D25219D3B299467F
:1021E000B24B9A4603E00135EDB2A94517D00F2452
:1021F0002C40337BE4185022AD4902A8D047132C61
:10220000F1D8A40002ABE05801A900234B70CB70B9
:102210008B7001330B70C0B2A64B9847E3E7F4898B
:102220005022A34902A8A14B9847132C13D9737DC0
:102230009B00DBB242461370B37DDB01727813431F
:10224000DBB2424653703379342B00D978E19B00DE
:10225000994AD3589F46A40002ABE05801A9002335
:102260004B70CB708B7001330B70C0B2914B9847A1
:10227000DDE7347B50228E4902A88C4B9847132C03
:1022800015D9F48950228A4902A8884B9847132C03
:10229000CDD8A40002ABE05801A900234B70CB704D
:1022A0008B7001330B70C0B2824B9847BFE7A4001C
:1022B00002ABE05801A900234B70CB708B70013347
:1022C0000B70C0B27B4B9847DBE70423102402213C
:1022D0001AE0717C337C102416E0062310240121BF
:1022E00012E00823102400210EE0002330240021F6
:1022F0000AE000232024002106E00023002400211E
:1023000002E0022310240121090170220A40134334
:1023100042469370F37D17203F2B00D931E7D370ED
:102320003A68537E5BB2002BFBDBF37C728813436D
:102330002422B25CD2001343327D92001343B27C5C
:1023400052001343234342469380337E002B20D018
:10235000102C00D1D6E000D880E0202C00D1B3E0D2
:10236000302C16D1F27C002A0AD0F2698032172074
:10237000FF2A00D905E7326A8032FF2A00D900E738
:102380001720F269FF2A00DDFBE6326AFF2A00DD32
:10239000F7E639684A7E52B2002AFBDB42461372E6
:1023A0003A68537E5BB2002BFBDBB38B42469383D0
:1023B0003A68537E5BB2002BFBDB338C42461384BE
:1023C0002C23F35C002B05D0013BDBB217200F2B35
:1023D00000D9D6E62B22B15C17200F2900D9D0E610
:1023E0003868427E52B2002AFBDBF289307B02431E
:1023F000B068024309050A431B04134342461361B4
:102400002A23F35C13750F2393751533F35C002BAC
:1024100012D0F38C294A1720934200D9B1E64246E4
:102420009384328D80231B01D31824499BB28B42A5
:1024300000D9A6E64346DA84214B1B685B01E02203
:10244000D20013401F4A516849011268D20E0A4354
:10245000D2B2134342461385002092E6002C98D155
:10246000F27C002A0FD0F269802109018C46624477
:10247000124917208A4200D983E6326A62440F4922
:102480008A4200D97DE60D4A1720F169914200DDAC
:1024900077E6316A914200DD73E67AE70004004096
:1024A000000800404DF10100C1F001001D62020072
:1024B0006077020075F201008C760200FF0F0000C9
:1024C0002460800020608000F27C002A0FD0F26936
:1024D000802189008C4662441A4917208A4200D91B
:1024E0004FE6326A624417498A4200D949E6154AE2
:1024F0001720F169914200DD43E6316A914200DD27
:102500003FE646E7F27C002A0FD0F26980210902FB
:102510008C4662440C4917208A4200D931E6326A5F
:10252000624409498A4200D92BE6074A1720F1691B
:10253000914200DD25E6316A914200DD21E628E77F
:1025400017201EE6FF030000FFFF000070B5274BB9
:102550001C682568AB79DB0707D50123AB71230025
:10256000143302D0637C002B31D1AB799B0738D573
:102570000223AB71A3899BB2002B2CD0E3899BB2C1
:102580005A1C92B2E2815B00A268944663441B88A5
:102590009BB2AB81A389013B9BB2A381A3899BB270
:1025A000002B18D100222033E2541E3B2B71AB715B
:1025B000802189047E330E4AD1502300143310D079
:1025C000A37C002B0AD00020E369984706E0002096
:1025D000A3699847C9E72300143302D0237C002B5A
:1025E00000D170BD636900209847FAE7644100207C
:1025F00000E100E010B5264B984726490B8C0F22CE
:1026000013409B002448185803781A403F23CA54AB
:102610000F33CA5CD2B203781B012049C91849881C
:102620001F4CE3185B88CB1A4361D3070FD50121F8
:102630004E23184AD1543E3B4374037CDB0703D539
:102640004368002B00D09847164B984710BD93075E
:102650000DD502214E230F4AD15400234374037C2D
:102660009B07F1D58368002BEED09847ECE7530722
:10267000EAD504214E23074AD154483B4374037CD6
:102680005B07E1D5C368002BDED09847DCE7C04686
:1026900099D5010000480041CC0200207041002083
:1026A000E0020020D9D5010010B50B4B1C690B4985
:1026B0008A69986802439A60094B8B61002C05D0A7
:1026C000206863689847A468002CF9D1024BD96848
:1026D0009A688A439A6010BD0000002000040042FE
:1026E000FFFF0F0F064A136A02210B4313620122F8
:1026F000044B1A7019000B781342FCD17047C04686
:10270000000400400004004201680722CB691A421D
:10271000FCD1704770B5040006683268458B838B26
:10272000ED1AADB2838B013B9BB2838313011DD5A0
:10273000C37A002B03D0838B9BB2012B10D0A38BC9
:102740009BB2002B02D1A37A002B1CD12000124B8C
:102750009847236A5D192823F35CDBB22B7070BDA8
:1027600072688023DB0213437360E8E7C37A002BAF
:10277000E5D0838B9BB2002BE1D172688023DB0212
:1027800013437360DBE72000034B98477268C02354
:102790009B0213437360D9E70927010070B5040059
:1027A00005686B8B5B0703D51E222523C25470BDC1
:1027B000468B838BF61AB6B2838B013B9BB2838325
:1027C000044B9847236A9E193378DBB22822AB5416
:1027D000EDE7C0460927010070B505000C0006684A
:1027E0004B7A002B1AD17368134A134073606368E5
:1027F0002B626388AB8300222423EA540532013321
:10280000EA54223BB375237A002B0BD123885B005B
:10281000627A920313437362002070BD897A074B7A
:102820009847E0E723885B00627A92031343802293
:10283000120213437362EFE7FFFFFBFF99500100A1
:10284000F8B505000C0006684B6803624B8883836B
:1028500001222423C25404320133C25437683F0199
:10286000FF0F4B7A002B17D1002F02D06388012B6A
:1028700016D07368204A13407360237A002B15D159
:102880000323B37523885B00627A9203134301220A
:10289000134373620020F8BD897A184B9847E3E729
:1028A00072688023DB0213437360E6E723885B00D2
:1028B000627A920313438022120213437362280048
:1028C0000F4B984773680C4A134073600028E2D19D
:1028D00028000C4B98470028DDD10323B3752388CB
:1028E0001B0A782213435B00627A920301210A4398
:1028F00013437362CFE7C046FFFFFBFF995001000F
:102900006D5001003D500100931C9B00C31859609D
:10291000037E012191400B43DBB203767047000038
:1029200010B5838B9BB20522002B01D0100010BD87
:1029300001338372C372024B98470200F6E7C04628
:102940004128010010B5838B9BB20522002B01D0DA
:10295000100010BD01338372C372024B984702000E
:10296000F6E7C046D927010070B58000754BC45802
:1029700025682B681B01DA0F637E267E1E40638B61
:102980009BB2002B03D1A38B9BB2002B23D1638B73
:102990009BB2002B08D0A38B9BB2002B04D1253314
:1029A000E35C052B00D16DE0638B9BB2002B24D040
:1029B000A38B9BB2002B20D06B8B9B0600D581E0B4
:1029C000002A04D0A38B9BB2012B00D17AE04122D4
:1029D0002523E25411E02B7EDB0707D501232B765C
:1029E0006B8B9B072ED541222523E254A38B9BB2F0
:1029F00063832523E35C052B38D0638B9BB2002BCC
:102A000007D0A38B9BB2002B03D12533E35C052BAE
:102A100064D02523E35C052B13D02523E35C002B36
:102A20000FD003232B7500236383A3832533E35C3B
:102A3000412B03D0A37A002B00D075E0730700D59B
:102A40007BE070BD6B8B5B07D0D518222523E25449
:102A50000023A383A37A002BC8D020003A4B9847C9
:102A60006A68C0239B0213436B60BFE71F33E35CBC
:102A7000002B03D02000354B9847BEE72000344B95
:102A80009847BAE71F33E35C002B00D08CE7033391
:102A90002B750023638325330022E254A37A002B95
:102AA00007D101232B76F307A7D5E36820009847C9
:102AB000A3E72000244B98476A68C0239B02134376
:102AC0006B60F0E72423E35C002B03D12000204B54
:102AD000984792E720001D4B98478EE71F33E35C31
:102AE000012B96D12B7E9B0701D502232B76032346
:102AF0002B750023638325330022E254B30703D5EB
:102B00002423E35C012B0BD0F30700D481E72423BB
:102B1000E35C002B00D07CE7E3682000984778E76F
:102B200023692000984774E72000074B98476A689C
:102B3000E023DB0213436B6080E763692000984762
:102B40007FE7C046C0550020092701001527010076
:102B50009D270100BFF34F8F024A034BDA60BFF39A
:102B60004F8FFEE70400FA0500ED00E0F8B506001F
:102B70000F00064D1B23064A0F212800054CA047D5
:102B80002A0039003000A0470020F8BD3C03002097
:102B9000CC7A02000965020010B5024A024B984740
:102BA000002010BD7C78020009650200F0B587B0F6
:102BB000070002912C4B98470F2502AB9C466544B9
:102BC00029002A4B98472B78002B3DD0284D062210
:102BD00000212800274B9847234B98472900264B74
:102BE00098470023E85E254EB047254C206002231D
:102BF000E85EB04760600423E85EB047051CA06053
:102C0000204E2068B0470390281CB04701906068B0
:102C1000B0470090039B1C4A029938001B4CA04708
:102C200004AC174E174D3068A84720807068A8473D
:102C30006080B068A847A0802000154B9847012805
:102C400008D0002007B0F0BD124A029938000F4B9F
:102C50009847E5E73800104B9847381815220F4978
:102C60000F4B9847EDE7C046E5380100AD3801004D
:102C70004C03002053620200D13801008538010066
:102C800030030020F9470200F877020009650200CE
:102C90006D4C01001C78020067660200307802006B
:102CA0001D62020010B50220014B9847002010BDA4
:102CB000414C010070B590B004000D00214B9847C5
:102CC0000023002802D1180010B070BD0121684611
:102CD0001D4B984701230028F5D16B461B78032232
:102CE0001A409B08D808800007210B40C018022A10
:102CF00015D00123032AE6D1C117043213000B407B
:102D00001B18DB109B00490F40181040401A1B187D
:102D10000E4A290020000E4CA0470123D3E7C61716
:102D20000B0033401B18DB109A00760F83190B4001
:102D30009B1BD318074A29002000054CA0470123FC
:102D4000C1E7C046ED3801003D390100647802005A
:102D5000096502004878020030B583B004000D0018
:102D60006B46981D002303806421124B984700286E
:102D70000ED00300104A29002000104DA8476B46D2
:102D8000981D0F4B984701280BD0002003B030BD91
:102D90006B4606331B880B4A29002000074DA847C5
:102DA000EDE72000084B984720181A220749084BE6
:102DB0009847EAE78D330100B47702000965020005
:102DC000894C0100C877020067660200DC770200C8
:102DD0001D62020030B587B004000D0001A8002379
:102DE000037001334370013383700133C3700133C7
:102DF000037101334371013383710133C3710133B3
:102E0000037201334372F6338372064B98470128ED
:102E100002D0002007B030BD034A29002000034B38
:102E20009847F6E7A54C0100947802000965020076
:102E3000F0B5C64600B582B05A485B4CA0475B4827
:102E4000A0475B48A0475B48A0475B48A0475B485A
:102E5000A0475B48A0475B48A0475B485B4B98474F
:102E600000245B4F594B984627E09730594B9847C1
:102E700023E05948C0470024584B1C70584B1C7025
:102E8000584D312258492800584B98473123EC546B
:102E9000574C584E822221005348B047050000226B
:102EA0008123E2542000494B9847002DF2D1322271
:102EB00000214D48504B9847002401A8B847431CB7
:102EC000D3D001AB1B780A2BD3D00D2BD1D0434AE2
:102ED0001278002A3FD0424A1278032A13D8511C94
:102EE000C9B23F480170454883540129E5D9444996
:102EF0004248444B984700280BD10023374A1370AF
:102F0000374A1370D9E70023344A1370344A1370D8
:102F1000D3E7354C1B223C4920003C4B984720000E
:102F20002A4B9847322200212000334B9847312208
:102F30002C4920002D4B98472000354B98473124D1
:102F4000302803D82748324B98470400E4B226487B
:102F50001E4B9847D1E7082B0FD07F2B0DD01B2B92
:102F600019D0312C03D8204A13550134E4B201A8FA
:102F700000234370154B98479FE7264B1B6800932F
:102F80006846124B9847002C97D0013CE4B20022CF
:102F9000154B1A5591E70122104B1A700022104B65
:102FA0001A708AE7147B020085510100E47A02005E
:102FB000BC7A0200247B0200047B0200F47A020047
:102FC000D47A0200347B02006C7A02006D8F01001B
:102FD000F18F0100F58001007CAE02005203002059
:102FE000530300208C030020580300209766020042
:102FF000C0030020C95101005362020054030020A5
:10300000B07A0200B1650200B47A02006D65020078
:1030100067660200B0770200F0B58BB006AF78604B
:103020009F4B18009F4B984732209F4B9847002298
:10303000142102209D4B984702009D4B1A600022EC
:1030400003210220994B984702009A4B1A60984B33
:103050001B68002B03D0974B1B68002B03D1964BAA
:103060001800904B9847954B00221A70944B002201
:103070001A60924B1B78012B33D0022B00D108E150
:10308000002B00D001E18E4B1B68002B00D002E129
:103090008C4B1800834B9847894B1B685A1C884BF4
:1030A0001A600023FB600BE0FB68D8B2002300220B
:1030B0000021854CA047854B9847FB680133FB6096
:1030C000FB680E2BF0DD824B984703001A00814B02
:1030D0001A60804B1B68DBB2190000207E4B9847BA
:1030E000D9E07E4B00221A6085E0794B98470300B7
:1030F0001A00784B1A60774B1B68002B00D17AE0DE
:10310000744B1B68DAB2764B11001800724B98476B
:103110006B4B00221A6068E0694B1B68704AD35CF5
:103120009B08DBB2DB08DBB29A00654B1B686C497D
:10313000CB5C9B08DBB2190007230B40D218694B0C
:103140001A605F4B1B68664AD35C1A0003231A405F
:10315000654B1A60644B1B68022B0AD1614B1B68DC
:10316000D8B2002300220021574CA047574B984764
:1031700036E05D4B1B68032B31D15A4B1B68D8B22C
:10318000AA233C223221504CA047504B984728207C
:10319000564B9847534B1B680133554A55483F21BE
:1031A000554CA047534B18003E4B98474D4B1B685E
:1031B0000133012219000220504B984728204B4B25
:1031C0009847464B1A68474B1B68591C4C4B92005A
:1031D000D150424B1B685A1C404B1A6000E0C0465D
:1031E000374B1B685A1C364B1A60354B1A68394BE3
:1031F0001B689A4290DB394B1B68052B00DC74E797
:10320000384B1B68D8B20023002200212E4CA04767
:103210002E4B98472820354B9847394B1B689C46C6
:10322000374B5A68364B9968354BD868344B1C6914
:10323000334B5B69334E2F4D0493039402900191FD
:103240000092634632003F2128002B4CA0472E4BB2
:103250001800144B9847274B1800124B984728200A
:10326000224B98472949234B3F221800284B984767
:10327000031E03D10220274B984702E00120254B73
:1032800098470E4B00221A7006E00C4B00221A7071
:1032900002E0C04600E0C0462820144B9847E8E60C
:1032A000447B02006D8F0100896402002D6B0100D8
:1032B0004404002048040020647B0200784200207F
:1032C000EC410020907B0200D9390100113A010045
:1032D000ED380100304200203D3901003442002029
:1032E000C0410020E4410020E0410020F5800100C1
:1032F000C47B0200F041002009650200B1460100D4
:10330000C8410020DC7B0200F07B02003842002034
:10331000756602002947010090B585B000AF78605E
:10332000064B1868796800230A22054CA047030061
:10333000FB60FB681800BD4605B090BD440400204A
:10334000696C010080B582B000AF786039603A687E
:103350007968094B1800094B9847094B1800094B2D
:103360009847054B1800074B9847074B01221A70E6
:10337000C046BD4602B080BD384200201D6202003A
:10338000107C02006D8F01007842002070B50600AD
:103390000D001F4B1868962149001E4B98470128C5
:1033A0002DD11D4955230B7001221C481C4B9847F9
:1033B0000024002808D0164B1868002300220021A2
:1033C000184DA847200070BD174B18682900114BF5
:1033D0009847012816D1022214491048144B9847E7
:1033E000114B186829000B4B984701280DD10F4944
:1033F0000A7812024B789B1833800024DBE71D24E7
:103400006442D8E703246442D5E703246442D2E748
:1034100084420020117601007E4200208842002074
:1034200091E90100696C0100804200207C4200208B
:10343000B1E9010010B582B000240194074B18686F
:1034400001A9074B9847074B1C70019B002B03D029
:1034500080225205044B1A6002B010BDE8420020E1
:10346000F57201004C04002004ED00E010B582B0BC
:1034700000240194074B186801A9074B9847074B94
:103480001C70019B002B03D080225205044B1A6054
:1034900002B010BDE8420020F57201004C0400208B
:1034A00004ED00E010B582B000240194074B1868C9
:1034B00001A9074B9847074B1C70019B002B03D0B9
:1034C00080225205044B1A6002B010BDE842002071
:1034D000F57201004C04002004ED00E070B50C4CC6
:1034E00000220C4920000C4DA847637E01221343A3
:1034F00063760A492000A847637E0222134363765D
:1035000007492000A847637E04221343637670BDF9
:10351000C042002035340100092901006D3401004A
:10352000A534010070B58EB001AB64220192334A1C
:103530000292002203921A731A7680218903059160
:1035400001214942998225315A540B9208315A542B
:1035500001315A5401315A54D7321A86284A0892F6
:10356000284A0992FA229200DA820324264D274E35
:1035700001AA27492800B047002806D02248254B39
:103580009847013CE4B2002CF2D11F4B1C68072283
:10359000E3691A42FCD123680222134323601A4DC7
:1035A00028681D4B98471F2318401E3B83401B4A29
:1035B0001360E88800231021628B0A4204D1013392
:1035C0008342F9D310236383154B98470120154B91
:1035D0009847154C2060032200210120134B984787
:1035E000134B18602368002B04D00023002802D15D
:1035F000063300E0062318000EB070BD480D000031
:103600000200080002000900C0420020CD4C010069
:1036100000080042C54F010025DE010000E100E086
:10362000DD340100916F0100BC4200202D6B0100D0
:10363000E842002010B5002812D04368002B12D0B9
:103640000A4902780A804B60C3894B800848094BBD
:1036500098470023002801D1180010BD063BFBE766
:1036600008235B42F8E708235B42F5E7EC420020C1
:10367000C04200204529010010B5002813D043683E
:10368000002B13D00B4903780B8083684B60838930
:103690004B800948094B98470023002801D11800A6
:1036A00010BD063BFBE708235B42F8E708235B42BB
:1036B000F5E7C046EC420020C0420020212901006D
:1036C00010B5074B1868002300220021054CA047C5
:1036D0000023012801D1180010BD143BFBE7C046B0
:1036E000BC420020696C010010B50100054B186850
:1036F000054B98470023012801D1180010BD1D3B40
:10370000FBE7C046BC4200201176010070B5040002
:103710000D0096204000104B9847002800D070BD47
:103720000E4B1E6820000E4B9847002805D129003B
:1037300030000C4B9847012802D00B4B9847EEE71E
:103740000A4B1B78002B03D00022084B1A70F4E7B9
:10375000054B9847E3E7C046E9360100E842002000
:103760003536010011760100C13601004C040020FD
:10377000F8B504000E001500962040001A4B98473B
:10378000002800D0F8BD194B1F682000184B98473F
:10379000002805D129003800164B9847012802D08F
:1037A000154B9847EEE7154B1B78002B03D00022F2
:1037B000124B1A70F4E73000114B98472000114B60
:1037C00098470028ECD1290038000A4B9847012877
:1037D000E6D10A4B1B78002B03D00022074B1A704E
:1037E000DEE7054B9847CDE7E9360100E8420020C7
:1037F0003536010011760100C13601004C0400206D
:10380000F58001007936010010B582B06846C41D0C
:10381000C17107486A210170446082600122C2813F
:10382000838163320021034B984702B010BDC0462C
:10383000384300207137010070B50E0011001D00E3
:10384000094C1A002000094B9847013C2670084893
:103850006A23037044600135C5810023838164219C
:10386000044B984770BDC046F94200201D6202001B
:10387000384300200D37010070B585684468280082
:10388000A04770BD10B5044B98470449044B9847B6
:103890000449054B984710BD3948020000007442A6
:1038A000B945020000007A442943020070B582B095
:1038B0000D0001AC012322001E21044EB0472378E5
:1038C000DB07DB0F2B7002B070BDC04679380100FA
:1038D00010B50A0006232821014CA04710BDC046A0
:1038E00079380100004870471400002000B583B00B
:1038F0006B460022DA7107330B482E3202700B4AF6
:1039000042600222C28183600123838162320021EE
:10391000074B9847002803D16B46D87903B000BD08
:103920000448054B9847F7E7484300204C7D0200C8
:1039300071370100207D02006D8F010010B582B04B
:103940000023002902D1180002B010BD01AA0C4BBF
:103950001B8813800B4B2E241C705A600222DA81C4
:1039600098609981623200211800074B9847040043
:10397000031EE8D00548064B98472300E3E7C046FE
:10398000347C02004843002071370100207D020092
:103990006D8F010010B582B0012423008B400F21F0
:1039A0001940490001231A400A4301AB1021197044
:1039B0005C709870DA7006482E220270436004230F
:1039C000C381002383815431024B984702B010BD5C
:1039D000484300200D37010030B583B00E246D46FA
:1039E0002C700A3C6C702A716971AB714300C0186D
:1039F000030AAB70E870044845600723C381642163
:103A0000024B984703B030BD484300200D370100FA
:103A100000B583B001AB064A92881A80054843601E
:103A20000223C3816421044B984703B000BDC04604
:103A3000347C0200484300200D370100F0B5CE462B
:103A400000B584B04B482E2303704B4B43600223D8
:103A5000C38103AB83600123838164220021474B30
:103A60009847002849D103AB1B78552B49D04448CF
:103A7000444B98473F48444B43600323C381642130
:103A8000424B9847002840D13A48414B43600323BA
:103A9000C38164213D4B984700283AD135483D4BBE
:103AA00043600423C3816421384B98470190002868
:103AB00033D1FF23FF22FF210F20374EB047374C71
:103AC000A047C8204000364B984700230022002121
:103AD0000F20B047A04727482E230370314B436087
:103AE0000323C381002383816421284B9847002846
:103AF00017D1002603272C4D1AE02C48214B98475C
:103B0000B8E72B481F4B9847B4E72A481D4B984706
:103B1000BAE729481B4B9847C0E72848194B9847F4
:103B2000C7E72748174B9847E3E70136102E1BD00D
:103B3000F2173C001440A419A410E400920FB3182B
:103B40003B409B1AE418E4B2012239002000A84748
:103B50008146012202212000A8474B460343E4D0BE
:103B60001748084B9847E0E7019804B004BC914619
:103B7000F0BDC04648430020447D0200713701007B
:103B80005C7C02006D8F0100547D02000D37010046
:103B9000587D0200507D0200D9390100113A010020
:103BA000F5800100487D0200953901003C7C02004F
:103BB000687C02007C7C02009C7C0200C87C0200C5
:103BC000FC7C020030B599B00CAC2000204B98472B
:103BD00006232373C0235B01E3811E4D22001E498F
:103BE00028001E4B98472A68537E5BB2002BFBDBF4
:103BF0000F2393751376137802210B431370154B23
:103C00001A68537E5BB2002BFBDB6846104B98476B
:103C100006236A461373C0235B01D381104C0E49FF
:103C200020000E4B98472268537E5BB2002BFBDBD3
:103C30000F2393751376137802210B431370084BEF
:103C40001A68537E5BB2002BFBDB19B030BDC04657
:103C50001521010060430020004000425D21010069
:103C60005843002090B583B000AF04000800110055
:103C7000FB1D221C1A70BB1D021C1A707B1D0A1C26
:103C80001A70084BFA1D12781A70074BBA1D127879
:103C90001A70064B7A1D12781A70C046BD4603B0E2
:103CA00090BDC0464D0400202000002021000020CF
:103CB000024B1A78104318707047C0464F0400201A
:103CC000064B1A6801321A601B68282B02D90122A0
:103CD000024B1A600122024B1A707047A8000020A4
:103CE000A8060020F0B585B0040003AB00221A70CE
:103CF0005A709A704268936852681B4901201B4DA4
:103D0000A84723689C68042219492000194B98474A
:103D1000002827D1201D02902379002B12D00024E7
:103D2000154E03AD0A2202A9B0476055029B1A78CE
:103D30002C2A07D1581C0290022C03D001345B7846
:103D4000002BEFD103AB1C785D789E7800962B009A
:103D500022000A490120054FB847320029002000FF
:103D6000074B984705B0F0BD407E02001D90010052
:103D7000487E02007566020021680200507E020043
:103D8000653C0100F0B587B004001422FF2101A8B2
:103D90002F4B98472368986809222E492E4B984745
:103DA000002843D12D4901302D4DA8476268936802
:103DB00052682C490120A84722689368D2682A4992
:103DC0000120A84723689B681800093000905B7A9F
:103DD000002B13D001AC17256D44244E0A226946EE
:103DE000B0472070009B1A782C2A07D1581C0090ED
:103DF000AC4203D001345B78002BEFD11C49012089
:103E0000174B984701AC06AF1A4E154D227831007A
:103E10000120A8470134A742F8D101A8164B9847C2
:103E2000012813D115490E4B98470FE01449012082
:103E30000B4DA8476268936852680A490120A84759
:103E400022689368D26808490120A84707B0F0BDEE
:103E500053620200AC7D020075660200B87D02006C
:103E60001D900100407E0200D47D02002168020006
:103E7000DC7D0200F07D020019330100F47D0200B8
:103E8000107E020010B50368D9689868024B984705
:103E90000248034B984710BD45330100647E020081
:103EA0006D8F010010B5014B984710BD1122020023
:103EB00010B5014B984710BD0522020010B582B025
:103EC000154B1B78DA0712D59A0715D55A0718D45F
:103ED0001B071BD411490120114B98470023009365
:103EE000012210491048114CA04702B010BD1049E2
:103EF00001200B4B9847F8E70E490120084B9847E3
:103F0000F3E70D490120064B9847EEE70B490120E6
:103F1000034B9847E9E7C0464F0400201083020096
:103F20001D9001003C830200C04300203533020095
:103F3000608202008C820200B8820200E4820200E9
:103F400000B587B06846134B9847134B0293802304
:103F50009B000393114A04920593114B6A46138008
:103F6000104B938069461048104B9847021E07DBA0
:103F70000F490D480F4B9847021E06DB07B000BDE6
:103F80000D4901200D4B9847FEE70D4901200B4BD1
:103F90009847FEE7D9210200E4060020E40800204B
:103FA0005B07000070170000AC060020252102000E
:103FB000C53F0100F5210200947E02001D90010022
:103FC000C87E020030B587B00400012930D0052931
:103FD0004AD0002901D007B030BD1368002B1CDB8C
:103FE00024490120244B9847244A00230593049335
:103FF0000393029301930092214B01212000214C55
:10400000A047002804D0204901201B4B9847E2E735
:104010001E490120184B9847DDE71D4D2A001D4918
:104020000120154B9847290020001B4B9847D2E7E9
:104030001278002A13D1194B02321949194DA84799
:10404000194B022219492000A847194B022219498D
:104050002000A84718490120074B9847BBE717499C
:104060000120054B9847B6E715490120024B9847B8
:10407000B1E7C046EC8002001D90010018810200EB
:1040800008810200492202002081020048810200CA
:10409000D8800200648102001D220200853D0100DB
:1040A0009C8102004D230200E53C0100B08102002A
:1040B000853E0100C4810200D4810200E881020033
:1040C0001C82020070B584B005000C00FF221300B2
:1040D0000B40090E0291210C11400191210A0A4066
:1040E0000092020004490120044EB047210028003C
:1040F000034B984704B070BD308202001D90010050
:10410000052E020010B5014B984710BD313A020050
:10411000F0B5D64600B59AB00190029100280DD0B6
:1041200000290BD0874B1B781B0700D5C5E0864BB9
:1041300030221A700A325A70844C08E084490120F7
:10414000844B98471AB004BC9246F0BD0400601E30
:1041500003782F2BFAD1804B9847012800D8C1E073
:10416000794FB81C21007D4B98474122002109A8B6
:104170007B4CA0470922002106A8A04700230593F5
:10418000784C002239002000774B98470700200028
:10419000764B9847002F7DD16B486F4B984740284E
:1041A00078D82E216848724B9847041E3BD06A4B42
:1041B0009847070086B2072E21D8210006A8674B32
:1041C00098476148644B98473F043F0CC71B3C2FFE
:1041D0000AD93C27BF1BBFB23A005B4909A8654B0F
:1041E000984701239A4612E05749641AA7B224045B
:1041F000220C09A85F4B984701239A4607E03C220E
:10420000514909A85B4B984700239A463C277C1CE0
:10421000A4B22D2209ABDA550126E31C09AA944663
:104220006344039319E03C22474909A8514B98473E
:1042300000239A463C27EAE74A4F002209A93800A2
:10424000494B984705003800484B9847002D17D137
:104250000136494BB2B29A421CD83200474905A8F0
:10426000474B984709AB1819032205A9414B9847BA
:104270005346002BE0D006A90398384B9847DBE75C
:10428000314C402200212000354B984709A92000DD
:10429000324B98472C4C22003A4901202D4B98472D
:1042A0000A2221002F48304B9847002822D10022B3
:1042B000354B1A600820354B98470023099309AB0A
:1042C000029A01992748324CA047002818D0254867
:1042D000264B984720202D4B98472E4901201D4BF7
:1042E00098472FE72C4901201A4B98472020274B4D
:1042F000984727E7020029490120164B984721E7F4
:10430000214C236809998C4663441A002360244D8C
:104310002B68244901200F4EB04722682B689A422F
:1043200000D20FE70F48114B98471F490120094B56
:104330009847802212041D4B5A611020134B984756
:1043400000E7C0464F04002064000020698302009B
:104350006C8302001D900100676602001B6602006C
:10436000536202008006002085110200D115020070
:10437000C166020097660200E70300009083020016
:104380006D65020098830200E40A0020B13C010040
:104390000D13020034840200C08302000084020076
:1043A000A406002070840200A4840200004400419E
:1043B00070B51400042907D889002D4B5B589F461F
:1043C0002C4901202C4B984770BD2C4901202A4BC9
:1043D000984704202A4B9847F6E7128863682949D2
:1043E0000120254DA8472388C82B10D16168264B92
:1043F00019600022254B1A6080239B009942E3D864
:10440000A068234B984710201D4B9847DCE72020DD
:104410001B4B9847D8E7116850681D4B9847237A83
:10442000002BD1D01020164B9847CDE712681949C0
:104430000120114B984723680B33C5D1164B1B78CD
:104440001B0706D4144B1B785A070BD4134B984701
:10445000BAE71348134B98470F4A137808218B4348
:104460001370EFE7042293430B4A1370EEE7C04644
:104470005C7D0200FC7E02001D900100347F020082
:10448000B13C0100607F0200A4060020E40A002085
:10449000114101009C7F02004F040020BD3E01003D
:1044A00080060020D115020010B582B02C2803D060
:1044B000322837D002B010BD0B78012B1DD0002B55
:1044C000F8D128490120284B9847284A137802211F
:1044D0008B4313701B0717D4244B1B785A071CD42B
:1044E00001212348234B9847FF230093224B0222AC
:1044F0000B212248224CA047DCE7224901201A4B1D
:104500009847214B9847D5E72048214B9847174AB1
:10451000137808218B431370DEE704229343134A78
:104520001370DDE74B780A78C8780190897800919C
:10453000184901200C4CA0470220174B9847174BF5
:104540001B78012B0AD016490948164B98470028BA
:10455000B0D015490120044B9847ABE7134B98475F
:10456000A8E7C046708602001D9001004F0400209D
:10457000AC060020E122020094860200A086020020
:1045800041B40100508602005DB4010080060020A5
:10459000D1150200AC860200B13C01004E0400209F
:1045A000D88002001D220200D4860200BD3E010018
:1045B00070B51C4B98471C4901201C4B98471C4E5A
:1045C0001A4C09E01B49A0471B490120A0471B4D7D
:1045D0000020A8470228FBD10020B0470128F1D0D5
:1045E0000028F9D116490130104B9847154C8C2200
:1045F000920000212000144B984721000020134B0B
:1046000098470B2807D012490120084B98470120F2
:10461000104B984770BD0B220F490A38034B98473F
:10462000F8E7C04699910100CC7F02001D9001007F
:10463000CD980100048002002C800200B991010095
:1046400060800200500400205362020055110200F5
:10465000B4800200B13C01008480020010B584B037
:1046600001AC2000074B9847372301930023636078
:10467000013323720133E37221000720024B984774
:1046800004B010BD85D7010099D7010010B50022F4
:1046900007210448044B984700210720034B984703
:1046A00010BDC046C13C010041D601006DD60100DD
:1046B00030B583B004000B000092134A3F21134829
:1046C000134DA847012C0FD0104C2000114B9847D8
:1046D0000300002201920132009222000E490F488D
:1046E0000F4CA04703B030BD084C2000094B984741
:1046F000030000220192013200922200094907487A
:10470000074CA047EEE7C046847D0200240000204D
:1047100009650200676602009C7D0200AC0600206D
:10472000112302008C7D020030B583B003000A4CD7
:104730000A4A3F2120000A4DA8472000094B98470C
:10474000030000220192013200922200064907482C
:10475000074CA04703B030BD24000020707D02004C
:104760000965020067660200747D0200AC06002045
:1047700011230200F0B5C64600B592B06420DB4BB1
:1047800098470022DA4B1A7004210520D94CA04723
:10479000D94D2860002206210520A047D74B18607C
:1047A000002214210220A047D54B186000220221CC
:1047B0000520A047D34B18602B68002B4AD0CF4B65
:1047C0001B68002B46D0CE4B1B68002B42D0002824
:1047D00040D0CD48CD4B984705AC2000CC4B9847F6
:1047E000CC4D21002800CC4B98472800CB4B984754
:1047F0002000CB4B984780239B0023616560BC233E
:10480000FF332380BB3BFF3BA3702100C548C64B51
:104810009847021E22DBC549C248C54B9847C54B85
:104820009847C54B9847C54B9847C54B98471822A2
:1048300000210CA8C34B9847C34B9847C34B0C931C
:104840000CA8C34B9847021E0DD0C2490120C24B91
:104850009847FEE7C148AD4B9847BAE7C0490120E9
:10486000BD4B9847FEE7BF4C2200BF490120BA4B21
:104870009847BE4B9847BE49BE48BF4B9847FF2359
:104880000093BE4B02220B212000BD4CA047984B49
:104890001B789B070AD4BB4E9E4DBB4C0020B047F3
:1048A0002800A047924B1B789B07F7D5FA20800081
:1048B0008E4B98470122B54B1A701E00B14B98469B
:1048C00026E0002B00D0AAE1B14B9847994B9847BE
:1048D000A749A848A84B9847A44B98473423AD4A0A
:1048E000D35C002B50D0AC4901209B4B9847012250
:1048F000A64B1A7005A900230B707F4B1868002285
:10490000A64B9847012800D18DE16420774B98474A
:104910003378012B49D05AB2012AD2DD022B00D1C3
:10492000BFE0032B00D07AE1714B1B7830221A4292
:104930000ED1944D774C944F0020A8472000B847E3
:1049400005206A4B98476A4B1B7830221A42F3D0F5
:104950008F4B9847FA208000644B98470022904B79
:104960001A7005A98F4B0A0031CB31C20A228E483A
:104970008E4B9847002800D04BE18D48634B9847F9
:104980000022824B1A70B5E78A4910008A4B98477B
:10499000002805D134237F4AD35C002BA7D0A2E79F
:1049A000864901206C4B9847F4E70020C0475948DE
:1049B000754B9847524B1868002205A9774B9847CA
:1049C000012811D04D4B1868002205A9734B984758
:1049D000012849D034236F4AD35C002B8AD064214C
:1049E0001000774B984785E7764A774B03CB03C295
:1049F0001B88138005AB1F78FF2F18D00024734D40
:104A000005E003A92C230B806E48714B98473B00AF
:104A1000704A032103A8A84703A96A486C4B98472A
:104A2000013405ABE75CFF2F01D0142CE9D1654CB4
:104A30002000694FB847201803226849684B9847FF
:104A400021000120444DA84766490120A8472000C5
:104A5000B84703000022019201320092220062490D
:104A60004C48624CA047ADE705AA0021535E554C67
:104A70000420115E01910221525E00925C4A3F21A6
:104A80002000524FB8472000534B984703000022A4
:104A9000019201320092220056493E48534CA047F1
:104AA00098E744493B48544B9847002800D0ABE076
:104AB0003423384AD35C002B07D0324D17003424FE
:104AC0000020A8473B5D002BFAD1314B98470122CB
:104AD000334B1A7049494A48274B9847234B98470C
:104AE000484B98470322294B1A7003E7F5800100D1
:104AF0004F0400202D6B0100F80A0020F40A00206A
:104B0000F00A0020EC0A0020008502006D8F0100F1
:104B1000793C020068430020853C0200313D0200E0
:104B2000912C0200C0430020B92C0200B1430100C7
:104B30006D2D0200413F0100B14501005D460100BD
:104B40008D4601005362020085A10100A9440100C5
:104B50009DB00100648502001D900100D884020010
:104B60001C850200A0860200908502000DCF010086
:104B7000A53E0100B13E01008DCF010094860200E8
:104B800041B40100C9B10100B93D0200E80A0020AA
:104B900051CF0100AC060020B4850200057301006E
:104BA0004E04002044860200800600208511020089
:104BB00030860200D88002001D220200D486020046
:104BC0007123020024000020AC7D02000965020070
:104BD000ED650200707D020067660200D08502006C
:104BE0001D6202007CAE0200D48502001123020087
:104BF000E88502000C860200E1220200C5400100A7
:104C000005410100BD3E010009490120094B9847BB
:104C10004EE7020008490020064B9847B0E6002204
:104C2000064B1A7066E605AB1A78044B1A706CE6F0
:104C3000D48602001D90010020860200E80A0020B0
:104C400010B582B06B46D871032801D902B010BDEF
:104C5000044B186800230A2269460731024CA0471A
:104C6000F4E7C046F80A0020696C010010B50100A5
:104C7000034B186800230A22024CA04710BDC0460F
:104C8000F40A0020696C010010B50100034B18689C
:104C900000230A22024CA04710BDC046EC0A0020A7
:104CA000696C010010B50100034B186800230A224B
:104CB000024CA04710BDC046F00A0020696C0100FC
:104CC00001680722CB691A42FCD17047F0B5D6467D
:104CD0004F464646C0B58AB006000F00140031604A
:104CE0000800A04B9847A04A116A851C0123AB40DD
:104CF0000B43136209A9237B0B701430C5B2280043
:104D00009A4B984728009A4B9847207B0021994B53
:104D100098473B681C209B0705D50AB01CBC9046F1
:104D20009946A246F0BD3B681738DB07F5D43068DA
:104D30008C4B9946984705008F49904B9847AD009A
:104D40008F4BEE5000233376737600257383B38345
:104D50002522B554336214333B60336898461800FB
:104D6000C8478146802308AA1370557001239370A9
:104D7000D570E069276A002800D1AFE008AB187051
:104D8000022308AA5370000CC0B211007D4B984753
:104D9000002F00D1A7E008AB1F70022308AA5370B0
:104DA0003F0CF8B21100774B9847A38AF380E38A4F
:104DB0003381237E8022002B04D1734B9B789B0789
:104DC000DB0FDA01A16823690B4313432422A25CA1
:104DD000002A02D08022D2051343A26A13432C2258
:104DE000A25C002A03D180229204914202D1802247
:104DF000120513432D22A25C002A02D08022120445
:104E000013432E22A25C002A02D08022D203134335
:104E10004246126813434246136080235B0053608E
:104E200048461430C0B2594B98470790FA239B006C
:104E300022685A43914663689A46554DA8470090A8
:104E400001914B465800A84702900391208EA84735
:104E5000049005914F4F504A504B00980199B84724
:104E600002000B0004980599B8474D4E00224D4BA7
:104E7000B047049005914846A84702000B000498EB
:104E80000599B84702000B00474D00980199A847C3
:104E9000029A039BB0470022444BA847029A039B07
:104EA000434DA847434B9847050080239B04A268C5
:104EB0009A421ED003004020FF2D00D92DE7002488
:104EC0000020FF251D40240625430004FF231B046A
:104ED000184005434346DD6000201EE700214046A0
:104EE000354B98474AE701214046334B9847070026
:104EF00051E7FA26B60053465E4300980199020036
:104F00000B00274CA047009001913000204B9847A0
:104F100000222A4BB84702000B0000980199244C4C
:104F2000A0470022214B204CA047224B9847041E4B
:104F30000CD031000798224B98470238001B2B00F9
:104F4000FF2D0CD8FF28BCD94020E6E67100481E92
:104F5000079B9C4660441A4B98470138EFE7402076
:104F6000DBE6C046ADDD0100000400404DF101006C
:104F7000C1F00100E9DB010069290100E9DD010060
:104F8000C055002075F201000020004169F10100C8
:104F9000F56002006155020095D626E80B2E113E01
:104FA000D948020000002440615A02000000F03F8E
:104FB000F94E02008D60020035DC0100000008405F
:104FC000E93F0200F8B5CE46474680B504000368C5
:104FD0009946144EB04725682800134B98469847C9
:104FE0001F23184001273900814061330F4AD150F7
:104FF0002000B04783232B752B762B680222934326
:105000002B600B4B98472068C0470A4B98470A4BC8
:1050100098472000B0474B461F600CBC904699460D
:10502000F8BDC046C14C010025DE010000E100E0F2
:1050300099D501009DF10100D9D5010003681A7EC0
:10504000920707D502221A765B8B9B074120DB175C
:10505000184070475A8B520706D55968C0229202F1
:105060000A435A601820F4E70020F2E730B50268DE
:10507000002301240225117E21420BD1117E2942F9
:1050800006D101339BB201899942F4D8122002E083
:10509000002000E0002030BD10B504686268802365
:1050A000DB02134363606162024B9847012323765E
:1050B00010BDC0466D50010070B58000164BC4583D
:1050C00023689D7B227E637E13401D40EB0706D440
:1050D000AB070BD4EB0610D4AB0615D470BD200083
:1050E000A3689847012322689373F1E72000E368DF
:1050F0009847022322689373ECE7200023699847BE
:10510000102322689373E7E72000636998472368B8
:1051100020229A73E2E7C046A844002010B5002080
:10512000014B984710BDC046B950010010B5012091
:10513000014B984710BDC046B950010010B5022080
:10514000014B984710BDC046B950010070B50A0028
:10515000094B1B68002B0AD0074C25682B6859683F
:10516000064B984768682060431E984170BD04490B
:10517000014B1960F0E7C046000B00209766020063
:10518000B000002070B5051E06D008200A4B9847D5
:10519000041E03D172B6FEE772B6FEE7074B9847CE
:1051A000256000236360064B1A6854601C60054B41
:1051B0009847012070BDC04675670100B1660100C7
:1051C000AC000020C9660100F0B5DE4657464E46E9
:1051D0004546E0B583B0060000910192394B1B684B
:1051E000002B11D01B689B683200019900989847EA
:1051F000002802D10022334B1A6003B03CBC904619
:105200009946A246AB46F0BD2F4C2E4B1C602F4B4F
:105210009946202398462E4B9B462A4B9A460AE0F5
:10522000020029003000D84700280DD0646853469A
:105230001C60002C3ED027683D682800C847335CBE
:1052400042469343F2D1EBE73F7B7FB2002F2DDB49
:105250003378002B28D0320000250021012408E0FB
:1052600001290AD001356DB2210001321378002BDB
:1052700005D0202BF4D00100F7E72100F5E7012944
:105280000FD0104B1B68002B14D0AF42AAD0019A4C
:1052900010490098104B984700220A4B1A600020D2
:1052A000ABE7013D6DB2ECE70025EAE7054B1B6873
:1052B000002B97D1019A09490098074B9847002085
:1052C0009BE7C046FC0A0020B00000206766020091
:1052D00075660200F8860200976602005087020099
:1052E00010B5014B984710BD6979010010B5024B0C
:1052F000984780B210BDC046F185010010B5024B41
:105300009847000C10BDC046F185010070B504003F
:105310000D00044B9847010C090429432000024B5F
:10532000984770BDF1850100FD85010070B504004E
:105330000D00054B98470104090C2D04294320005A
:10534000024B984770BDC046F1850100FD85010004
:1053500010B5024B984780B210BDC046617901007C
:1053600010B5024B9847000C10BDC0466179010092
:1053700070B504000D00044B9847010C0904294343
:105380002000024B984770BD6179010065790100EA
:1053900070B504000D00054B98470104090C2D045D
:1053A00029432000024B984770BDC0466179010037
:1053B000657901000D4B1B68002B0DD001230B49B3
:1053C000DA005258002A08D001330A2BF8D1084AD3
:1053D00013680133136070470023044ADB009850C0
:1053E000D318012252425A60F5E7C0460C0B002048
:1053F0005C0B0020F8B5CE46474680B51D4B1B68B8
:10540000994600241C4E1B4D1C4B98461BE01A4F1E
:10541000DB00D8591A4B9847164B1B68DB00FB186A
:105420005B68FF2202400321EA20164FB84701348F
:10543000104F3B68581C0A21134B98473960002CC9
:1054400013DC894511D02B68DB0098590028EFD078
:10545000C047084B1B68D900074A5218526890424F
:10546000D5D2054A52185060D1E70CBC90469946F7
:10547000F8BDC046080B00200C0B0020058601007B
:10548000F1850100F9610100C942020070B5054DC6
:10549000054E064C01E00420A047A8470028FAD09A
:1054A000B047F8E715570100F5530100F5800100FA
:1054B00010B5014B984710BD3186010010B582B080
:1054C0000400124B9847012C09D0022C0AD0002C62
:1054D0000CD10F4B1B68002B0CD002B010BD0D4B34
:1054E0009847F6E70C480D4B9847F2E70C480B4BF2
:1054F0009847EEE7064B0193042300930023C8224C
:1055000008490948094CA047E7E7C0462957010068
:10551000040B00200D6501000C8B020001590100F5
:105520004C8B0200808B02008D540100057B010032
:1055300010B52F4B1B680922DA65013264215A54D9
:1055400001315A5401315A54053201315A546239E9
:10555000682019540130195401301954013019547C
:10556000013019546B315A5401315A5401315A5493
:1055700001315A5401315A5401315A5401315A54AB
:1055800001315A5401315A5468396D3299540132FB
:105590009954013299546B3A13301A541124013042
:1055A0001C540130195472315A5401315A5401318A
:1055B0005A54002175329952A03102329952A031C9
:1055C00002329952A031023299520A49023299525A
:1055D0000949023299520949023299520849023264
:1055E00099525F3102329952064A1A6610BDC0467E
:1055F000600B0020FD02000052030000A203000027
:1056000001040000BF040000174B00225A821A80D8
:105610000A329A825A800A32DA829A800A321A83CD
:10562000DA800F325A831A8105329A835A81053201
:10563000DA839A8105321A84DA8105325A841A8211
:10564000383A9A840A32DA840A321A850F325A8535
:1056500005329A850532DA8505321A8605325A8670
:1056600005329A867047C0467C0B0020082813D864
:1056700080000B4B1B589F460A4810E00A480EE07A
:105680000A480CE00A480AE00A4808E00A4806E02E
:105690000A4804E00A4802E00A4800E00A48704765
:1056A000E8870200548802009C880200F08802000B
:1056B0003C89020088890200D4890200288A0200FD
:1056C000808A0200DC8A02000C88020010B5002AE1
:1056D0000DD00B7803700B78002B08D0002301331A
:1056E0009A4204D0CC5CC454CC5C002CF7D110BDE1
:1056F00010B5064B1B68002B01D000221A63044B27
:105700001B68002B00D0984710BDC046600B0020DE
:10571000280C0020034B1B68002B01D0186B70472E
:105720000020FCE7600B0020F8B5DE4657464E46E9
:105730004546E0B5514B1B68002B00D199E01B7822
:10574000012B00D18FE04E4B1A684E4B1A604B4C28
:10575000BD252D012A00002120684B4B9847236866
:105760004A4A9A8105229A730022DA731D619621B2
:1057700049009961464959659A655A63454B98476E
:105780002068454A454BC250C8220433C250444B9E
:10579000C73AC250434A5533FF33C250424B9C462E
:1057A000604450224149424B984723684149424A4C
:1057B00099500A21414A99540131414A9954013181
:1057C000404A99540131404A9954404A64319954AD
:1057D00072253F4A9D5473263E4A9E5474273E4A82
:1057E0009F54F12290463D4A41469954F2229146F7
:1057F0003B4A49469954F32292463A4A51469954B3
:10580000F4229346384A59469954384B98472368AE
:105810005A46DA7252469A724A465A7242461A7288
:10582000DF719E715D7171221A710422DA70032397
:1058300022689370013B22685370236801221A701A
:105840002B4B196800290ED00C4C2368164A94463D
:10585000634418005022164B984722680121254BBB
:10586000D150254B98473CBC90469946A246AB4642
:10587000F8BD224A014B1A6065E7C046600B002064
:1058800018E000E08450002053620200A11A0000DA
:10589000F0F0F0F031550100F1F1F1F15C0500009C
:1058A00064050000F2F2F2F2BC060000548D020022
:1058B000CD560100F3F3F3F30C070000C40B000016
:1058C000C50B0000C60B0000C70B0000C80B000092
:1058D000C90B0000CA0B0000CB0B0000CC0B000072
:1058E000CD0B0000CE0B0000CF0B000009560100CD
:1058F000180C0020B4060000F1560100B44400204A
:1059000010B504000E4B1B68002B01D00D4B9847BF
:105910000D4B1B68002B00D010BD0B4B1C60084BBF
:1059200018680028F8D0094B9C466044502221009A
:10593000074B9847024B1A680121064BD150EBE701
:10594000600B0020F1560100180C0020BC0600007E
:10595000CD560100B406000010B50C4B1868036B5F
:10596000002B10D0C3692C22FF32934206D89B0033
:10597000E222D20094466344C01810BD0448054B8F
:1059800098470020F9E70020F7E7C046600B0020A9
:10599000688D020001590100F0B5C64600B5002827
:1059A00006D007000025002805D0254B98460AE0C0
:1059B0002448254B984704BC9046F0BD012A21D0CD
:1059C0000135BD42F7D243461C68E369EB189E00DF
:1059D000A219E221C9008C46624412781100673195
:1059E000C9B20E29EAD86832D2B2D318A1698B4263
:1059F000E6D2013292006346F01820180021134BC2
:105A00009847DDE70133A269934208D2E223DB0025
:105A1000F0182018082200210C4B9847D0E7E22309
:105A2000DB00E01804220021084B9847E223DB004A
:105A3000F018201804220021044B9847C0E7C04604
:105A4000600B0020888B02000159010053620200A4
:105A500010B50B4B1B681A6B002A10D05A69013223
:105A60005A61DA690132DA612C21FF318A4203D9A5
:105A700001221A620022DA610120024B984710BD10
:105A8000600B00209959010070B504000D00FF283B
:105A900002D00D4B984203D1AC4205D3280070BD13
:105AA0000A480B4B9847F9E70A4B9847002809D05A
:105AB000012303702B00A3431A0A42701B0C43807E
:105AC000054B98472540E9E7FFFF00008C8C02005A
:105AD0000159010059590100515A010010B5082916
:105AE00014D8002817D00E4B1A68531864331B784B
:105AF000834210D353187C331B780138584340310C
:105B0000490051180B89C01880B208E00548064BBF
:105B10009847002003E00548034B9847002010BD3C
:105B2000600B00201C930200015901005C930200ED
:105B300010B50B0001001800044B9847044B1B687C
:105B400018189C300123037010BDC046DD5A0100B7
:105B5000600B002070B5040008001500082C13D855
:105B60000D4B1B681B1964331B788B4210D321002B
:105B70000A4B9847084B1B681C19703422781B1875
:105B80009B189D331D7070BD0548064B9847FAE77A
:105B90000548044B9847F6E7600B0020DD5A0100EA
:105BA000A48E020001590100F08E020010B504001D
:105BB0000800082C13D80F4B1B681B1964331B7883
:105BC0008B4211D321000C4B98470A4B1B681C19C0
:105BD000703422781B189B189D33187810BD074825
:105BE000074B98470020F9E70648054B98470020E7
:105BF000F4E7C046600B0020DD5A0100C88C0200AB
:105C000001590100148D020070B504000800150050
:105C1000082C13D80D4B1B681B1964331B788B425F
:105C200010D321000A4B9847084B1B681C1970348D
:105C300022781B189B189C331D7070BD0548064BBD
:105C40009847FAE70548044B9847F6E7600B0020B1
:105C5000DD5A0100248E020001590100688E020005
:105C600010B50B4B1A686723D35C83420CD3032116
:105C7000084B9847064B1B6873229A5C1B189B18AD
:105C80009C3300221A7010BD0348044B9847FAE772
:105C9000600B0020DD5A0100308F02000159010025
:105CA00070B52D4B1B68002B46D0082849D8EFF360
:105CB0001084012383F31088284A1368013313608A
:105CC000274A43009B5AD21848321278002A0AD138
:105CD0002349CD1848355A1C060008367600891924
:105CE0004988521A2A700100103149001C4A521882
:105CF00092889A422AD31A49CA1848321278013334
:105D00009BB245006B52050008356D004D196D883A
:105D10005B1B050018356D004919C9888B4203DDEE
:105D20000F494819DBB2C3800C490B68013B0B607B
:105D300084F31088100070BD0A480B4B984700226E
:105D4000F8E70A48084B98470022F3E7084B9847C2
:105D5000054B98470022E7E7600B0020100C00205D
:105D60007C0B00202094020001590100448C0200A9
:105D70006D56010070B504000800151E12D0082CE5
:105D800014D8002916D0164B1B681B1964331B78D6
:105D90008B4213D32100134B9847134B1B68002BE6
:105DA00012D070BD1148124B9847FAE71148104BBA
:105DB0009847F6E710480E4B9847F2E720000F4B44
:105DC00098470B4B9847ECE7054B1B681C19703440
:105DD00022789C3018182900094B9847E1E7C04603
:105DE000600B0020DD5A0100180C0020908D02008D
:105DF00001590100C48D0200F48D02006D560100AE
:105E0000CD56010070B51E4B1B68012B2BD01D4BCE
:105E100019681D4B1B680131C91A1C4B1B681C4AB1
:105E20001468E243DA4224D41A4A1468A142A44115
:105E300064421C1900281FD0124D2B6801339B08A7
:105E400063431A00144E33602D68013503232B4041
:105E500063435B189B089B1833600C4A1460036013
:105E60000C4B196070BD0028FCD00B4B1B68036005
:105E7000F8E7A342DED1D7E7044B1C60F0E7C04649
:105E80001C0C002014E000E018E000E0780B00207B
:105E9000240C0020700B0020740B0020F0B583B0A0
:105EA000050000230193FF2802D0394B984235D1D9
:105EB000384B1C68636A002B05D1374B1B68002BDD
:105EC00031D09B08636201A8344B9847019B344A48
:105ED00011685C1A13602F4A1668776A002F32D057
:105EE000BC422CD9390020002E4B9847F36A9C46BF
:105EF0006044F062390020002B4B9847B36A9C46FF
:105F00006144B162234B1B689A6A596A8A421BD367
:105F1000D86A0130D862521A9A6215E02348244B9D
:105F20009847002014E0234B1A68234B1B689A42C1
:105F3000C9D00020214B984780086062C3E7B36A4C
:105F40001B19B362DEE7B362AC4203D820002840DD
:105F500003B0F0BD1A4B98470028F7D00C4B9D4278
:105F600007D0FF2D0CD01748114B9847164B984778
:105F7000ECE7A9230370230C438000234370F5E76B
:105F8000A8230370230A4380230E4370EEE7C04624
:105F9000FFFF0000600B0020140C0020055E0100D4
:105FA0000C0C0020E93F0200F5400200E08B0200EB
:105FB0000159010018E000E08450002035F0010094
:105FC00059590100208C0200515A010070B5041E7D
:105FD0001DD01B4B1B68002B19D00F2818D8194B4C
:105FE0001B68002B18D1EFF31085012383F3108871
:105FF000144A136801331360134B1B681B6B002B8F
:106000000ED1104A1368013B136085F3108870BDF0
:106010000E480F4B9847FAE70E480D4B9847F6E7A6
:106020000D480E4B984706000D4B98470028E8D0C6
:1060300002230370468044700A4B9847E1E7C0464C
:10604000C4000020100C0020600B002020920200F1
:106050000159010060920200FFFF00009D5E0100F7
:1060600059590100515A0100F0B583B000900C005D
:10607000284B1B68002B1DD0D317D6185E40EFF3BA
:106080001085012383F3108823490B6801330B60CB
:10609000002C04D0214B19688C4662441A601D4BB9
:1060A0001B681B6B002B07D11B4A1368013B136055
:1060B00085F3108803B0F0BDFF20194B984701907D
:1060C00031001848184B98470600184B9847071E90
:1060D000EAD06B461B794370002303704680144B53
:1060E000984721000F48104B984706000F4B9847E0
:1060F0000028D9D04680002343706B461C78631C6F
:1061000003703C700A4B9847024B1B68034A1268A5
:106110001A65C9E7600B0020100C0020680B0020F6
:106120009D5E0100FFFF0000895A010059590100DE
:10613000515A0100F8B505001400FE2825D8082999
:1061400027D8214B1B68591864310B78934224D30C
:106150001E4B1B68002B24D11D4B1B78002B13D02A
:10616000EFF31086012383F31088184A1368013374
:106170001360154B1B681B6B002B16D1134A136859
:10618000013B136086F31088F8BD1248124B984704
:10619000FAE71248104B9847F6E711480E4B98471C
:1061A000F2E710480C4B9847EEE70F480F4B984723
:1061B00007000F4B98470028E0D0478005704470D7
:1061C0000C4B9847DAE7C046600B0020100C00200B
:1061D000640B0020788F020001590100B08F02008B
:1061E000F88F020040900200FFFF00009D5E01005A
:1061F00059590100515A0100F0B5C64600B50600D4
:1062000014001D00FE2827D8082929D8244B1B6814
:10621000591864310B78934226D3224B1B68002B0C
:1062200026D1EFF31088012383F310881D4A1368E9
:10623000013313601A4B1B681B6B002B03D01A4BE6
:106240001B78002B18D1174A1368013B136088F3A1
:10625000108804BC9046F0BD1448154B9847F8E7E9
:106260001448134B9847F4E71348114B9847F0E74D
:1062700012480F4B9847ECE7FF20114B9847070057
:106280002900FF200F4B984705000F4B9847002827
:10629000D9D0C7700670447085700C4B9847D2E710
:1062A000600B0020100C0020640B002008910200FD
:1062B000015901004891020098910200E891020002
:1062C0009D5E0100895A010059590100515A01008F
:1062D000F8B504000D00FE281CD81C4B1B68002BD1
:1062E0001CD1EFF31086012383F31088174A13683B
:1062F00001331360164B1B681B6B002B03D0154B2F
:106300001B78002B0ED1114A1368013B136086F3F2
:106310001088F8BD1048114B9847FAE710480F4B0A
:106320009847F6E7FF200F4B9847070029000E48D3
:106330000E4B984705000E4B98470028E3D0477056
:10634000047045800B4B9847DDE7C046100C0020D9
:10635000600B0020640B00207890020001590100BE
:10636000D09002009D5E0100FFFF0000895A0100ED
:1063700059590100515A0100F8B504000F2818D8E6
:10638000EFF31085012383F31088264A1368013345
:106390001360254B1B78834204D0244B1B681B6B76
:1063A000002B0AD11F4A1368013B136085F3108844
:1063B000F8BD1F481F4B9847FAE700221E4B1A6092
:1063C0001E481F4B98470700174B1C701D4B9847E2
:1063D000061EE7D0144B1878144B1A686723D35C59
:1063E00083420FD30321184B9847104B1B6873222D
:1063F0009A5C1B189B189C331B78012B05D1063324
:10640000337004E011480B4B9847062333707780B4
:106410007470054B1978012203200D4B98470D4BE2
:106420009847BFE7100C0020640B0020600B002091
:1064300098920200015901006C0B0020FFFF000040
:106440009D5E010059590100DD5A0100E0920200F1
:10645000095C0100515A010070B5204B1B68002BEC
:106460000AD0186B012806D01D4B1B68002B08D0E2
:106470001A4B1B68186B70BD1A481B4B98470020BD
:10648000F9E7EFF31085012282F3108817490B68B2
:1064900001330B60114B1B681A63154B9847154B62
:1064A0009847C4B2002C09D02000134B98470F4ADC
:1064B0001368013B136085F31088D9E703200F4B65
:1064C0009847060004000E4A010003200D4B984730
:1064D0000022310003200C4B9847E5E7600B0020B9
:1064E000180C00209C93020001590100100C0020A0
:1064F000B1540100ED52010079630100A15C01007B
:10650000E0930200755D0100555B010010B5014B81
:10651000984710BD5964010003000833436001220D
:1065200052428260C360036100230360704700230E
:106530000361704743684B609A688A609A6851604B
:1065400099600861036801330360704730B50C68D7
:1065500002000832631C02D1026904E01A00536889
:106560001D68AC42FAD253684B6099608A605160F2
:10657000086103680133036030BD036942688168C4
:1065800091608268416851605A68904206D000224A
:1065900002611A68013A1A601868704782685A6086
:1065A000F5E7000082B000230193064B1B6801331E
:1065B00001D072B6FEE772B6019B002BFCD002B090
:1065C0007047C046C8000020000000000000000026
:1065D0000B4A13681868203080F30988022080F382
:1065E0001488BFF36F8F3FBCAE4608BC04BC62B6D4
:1065F0001847C046C046C046C046C046C046C04612
:10660000143B002010B5031F802464041C60043B6D
:106610001960043B02491960143B1A60403810BDF0
:10662000A56501007047000070B5134B1968FF2283
:1066300012040A431A601968FF2212060A431A60FC
:106640000E4D00242C600E4B1C6000200D4B984713
:10665000FA2189000C4B984701380C4B186007232E
:106660002B600B4B1C600B4B98470B4B98470B4B0D
:106670009847002070BDC04620ED00E010E000E02B
:1066800018E000E035F00100E93F020014E000E00E
:10669000C8000020D165010095810100A5650100B9
:1066A00080225205014B1A607047C04604ED00E09D
:1066B00072B6044A136801331360BFF34F8FBFF300
:1066C0006F8F7047C8000020064B1B68002B01D15C
:1066D00072B6FEE7013B034A1360002B00D162B69D
:1066E0007047C046C8000020EFF3108072B67047B4
:1066F00080F31088704700000000000000000000D8
:10670000EFF309800E4B1A6820381060F0C0444641
:106710004D4656465F46F0C008B572B601F03AFDE8
:1067200062B60CBC116808681030F0C8A046A946D3
:10673000B246BB4680F309882038F0C81847C046E7
:10674000143B002010B5074B98470400064B9847B0
:10675000002803D080225205044B1A602000044B0D
:10676000984710BDE96601003D7E010004ED00E0A0
:10677000F166010070B50400430702D007239C4373
:106780000834184B9847184B1B68002B17D0174B31
:106790001A68A31816498B4218D89A4216D2124981
:1067A0000D68AD18114A1360002D0FD0220029008A
:1067B0009420104B9847104B9847280070BD072233
:1067C0000E4B08339343084A1360E0E72200002190
:1067D000E820084B9847084B9847094B98470025F5
:1067E000EBE7C046217E01002C0C0020103B00206E
:1067F000D72E000069600100C97F0100300C002025
:10680000C13F0200002801D072B6FEE770470000C9
:10681000024B1B680248C01A7047C046103B00205C
:10682000D82E000010B50400034B9847A46B034B0F
:1068300098476042604110BDB1660100C966010021
:1068400070B504001600856B026C002A0BD1002085
:106850002368834204D16068164B98470023636025
:106860000135A56370BD002E0ED18068124B98478C
:10687000A368226C94466344A3600020626893423C
:10688000EED32368A360EBE7C0680B4B9847236CFB
:106890005B42E268D218E26021688A4203D26268F1
:1068A00094466344E3600020022ED9D18542D7D0BC
:1068B000013DD5E7758701001D620200F0B5CE46A7
:1068C000474680B583B001900091846C002C05D0C0
:1068D000A26BE36B9A4203D372B6FEE772B6FEE791
:1068E000A26B0026934205D8300003B00CBC904642
:1068F0009946F0BD4523E55C6DB22C4B98472C4B77
:1069000098472C4B1B8803421ED020002A4B9847E7
:10691000284B1B88034217D02536009B002B06D13D
:106920002000264B9847264B1E5C2036F6B22000EE
:10693000224B9847224B1F5C2000224B9847C2B243
:1069400039003000204B984720001C4FB8471C4EA0
:10695000335C984620001B4B9847C3B299462000F1
:10696000B847335C022B19D0A26B0132D2B2494630
:106970004046164B9847009A01A92000144B9847AF
:1069800006006B1C0CD1636A002BADD020002430B4
:10699000104B98470028A7D00126A5E70022E6E77C
:1069A00001356DB24523E5549EE7C046B154010060
:1069B000FD520100C000002061530100E1520100BE
:1069C000B80000205153010035610100095C01004D
:1069D000416801007984010010B50C00026C002AA6
:1069E0000BD0C3689B18C36041688B4201D3036816
:1069F000C360C1682000014B984710BD1D620200B2
:106A0000F8B50700254B98474523FC5C64B2002C81
:106A10001CDD234E234D0BE07B6A002B16D0380083
:106A20002430A84700280ED1013C64B2002C0DD0C0
:106A3000BB6C002BF0D000213800B0470028F3D009
:106A4000194B9847F0E7184B9847EDE7FF2245238D
:106A5000FA54164B9847114B98474423FC5C64B298
:106A6000002C14DD3B69002B11D03D0010350D4E7C
:106A700006E0013C64B2002C09D03B69002B06D033
:106A80002800B0470028F4D0074B9847F1E7FF22D1
:106A90004423FA54054B9847F8BDC046B16601003F
:106AA000BD68010079840100E5850100C966010027
:106AB00070B504000D00002821D0174B98472268BC
:106AC000216CE36B4B43D01860600020A063A26090
:106AD0005B1AD318E360FF234422A3540132A3546A
:106AE000002D11D12369002B05D0200010300B4B55
:106AF0009847002805D10A4B9847012070BD72B60F
:106B0000FEE7084B9847F6E720001030064DA847EF
:106B100020002430A847EEE7B16601007984010027
:106B2000C9660100A166010019650100F8B50600FB
:106B30000D001700002801D172B6FEE7080070436F
:106B40005430384B9847041E5BD0002D3BD1206059
:106B5000E663256401212000334B98475023E75416
:106B60000023A3642000314EB047314D285C314BE7
:106B7000984781B22000304B9847304B198820004D
:106B80002F4B98472000B0472D5C20002D4B984795
:106B9000C1B228002C4B98472C4B98472C4B984758
:106BA0002C4B1B88034212D12000204B9847204BCE
:106BB0001D5C2000234B9847C1B200222800264BC1
:106BC00098472000F8BD030054330360C0E720005D
:106BD000224B98471F4B1B880342E5D02000134FE0
:106BE000B847134E355C1835EDB22000B847365C17
:106BF0002000144B9847C2B231002800184B984728
:106C0000D2E7124B9847124B9847124B1B8803420E
:106C1000D7D0074BD85D4030C0B20021114B984708
:106C2000CFE7C04675670100B16A0100E15201007B
:106C3000B8000020A15C010071530100BE000020DB
:106C40009153010051530100315B0100B154010027
:106C5000FD520100C0000020095C010061530100E9
:106C600035610100D1620100F0B5CE46474680B5DE
:106C700085B00400009101921D0000280DD0009BFA
:106C8000002B0CD0022D0FD0AB4B9847002810D111
:106C9000019B002B10D072B6FEE772B6FEE7036CC4
:106CA000002BEFD072B6FEE7E36B012BECD072B68F
:106CB000FEE70027A14EBCE00027FBE7A04B98476A
:106CC000A04B9847A04B1B8803421DD020009F4B30
:106CD00098479D4B1B88034216D02527002D06D1CF
:106CE00020009B4B98479B4B1F5C2037FFB2200036
:106CF000974B9847974B1E5C2000974B9847C2B222
:106D000031003800954B98472000914EB047914F85
:106D10003B5C98462000904B9847C3B299462000B0
:106D2000B0473B5C022B1FD0A26B0132D2B2494666
:106D300040468B4B98472A0000992000894B984782
:106D4000A36C002B12D029002000874B9847002805
:106D500001D0864B9847864B98470123180005B011
:106D60000CBC90469946F0BD0022E0E7636A002B18
:106D700008D0200024307F4B98470028EBD07B4B75
:106D80009847E8E70028E6D0784B9847E3E7784B48
:106D900098476B4B98476B4B98476B4B1A8800236F
:106DA0000242DBD02000694B9847674B1A880023CA
:106DB0000242D3D04D26002D06D12000644B9847C7
:106DC000644B1E5C4836F6B22000614B9847614B1D
:106DD0001D5C2000604B9847C2B2290030005F4B19
:106DE00098470023BAE7624B984701A902A8624B73
:106DF000984700286ED1514B9847A36B9946E76B93
:106E00005B4B9847B9455FD14D4B98474D4B9847E1
:106E10004D4B1B88034234D1200010300199574B51
:106E200098472000564B9847564B9847002848D023
:106E30000127B047A36BE26B934200D23EE7022DDD
:106E400000D13BE7019B002BA1D0002F02D102A86B
:106E50004D4B9847464B98474C4B9847374B984774
:106E60004423E35C5BB2013302D100224423E254A9
:106E70004523E35C5BB20133B5D100224523E254E4
:106E8000B1E72000314B98472F4B1B880342C3D0FA
:106E90007527002D06D120002D4B98472D4B1F5CE8
:106EA0007037FFB220002A4B98472A4B1B5C99464B
:106EB0002000294B9847C2B249463800274B9847D3
:106EC000AAE72A4B9847B3E720002D4B98472D4B54
:106ED0009847ADE720002A4B98472A4B9847184B14
:106EE0009847184B9847184B1A880023024200D144
:106EF00034E72000154B9847134B1A8800230242B1
:106F000000D12BE74D26002D06D12000104B9847CD
:106F1000104B1E5C4836F6B220000D4B98470D4BC7
:106F20001D5C20000C4B9847C2B2290030000B4B6F
:106F30009847002312E7C0463D860100B166010074
:106F4000B1540100FD520100C00000206153010056
:106F5000E1520100B80000205153010035610100E9
:106F6000095C010041680100BD680100A1660100E3
:106F7000C96601007984010075850100B1830100B3
:106F8000016A0100C97F01005D850100217E0100C9
:106F900070B5020000210120064B9847041E07D05F
:106FA000002343600360C36000220021024DA84714
:106FB000200070BD2D6B0100696C0100F0B5DE464C
:106FC000474680B583B00400019116001F000028D9
:106FD0002DD0019B002B2CD0022F2FD0594B98473E
:106FE0000090A36BE26B9A425AD82000564B984708
:106FF000564B1B880025034200D19AE05D35002FD7
:1070000006D12000524B9847524B1D5C5835EDB2CB
:1070100020004F4B98474F4B1F5C20004E4B98472A
:10702000C2B2390028004D4B9847002581E072B666
:10703000FEE7036C002BCFD072B6FEE7E36B012BAB
:1070400027D072B6FEE7636A0125002B71D02000BD
:107050002430434B984700286BD0002E0AD00123E0
:10706000336066E001356DB24523E554012560E0EB
:1070700001255EE001255CE04523E55C6DB2200062
:10708000314B9847314B1B8803422DD0352398460E
:107090001CE02C4B98470090A36BE26B9A42EBD913
:1070A0004523E55C6DB22000274B9847274B1B8892
:1070B000034219D035239846002F07D12000244BD6
:1070C0009847244B1B5C3033DBB298462000204BA2
:1070D0009847204B1B5C9B4620001F4B9847C2B231
:1070E000594640461D4B98472000194B9847194B6D
:1070F0001B5C98462000184B9847A26B0132D2B215
:10710000C1B24046174B98473A0001992000164BF0
:1071100098476B1CA6D1A36C002B94D0390020009B
:10712000124B98470235002803D0002EA0D001232F
:10713000336000980E4B9847280003B00CBC904673
:107140009B46F0BDE966010061530100C0000020CC
:10715000E1520100B80000205153010035610100E7
:1071600079840100095C010041680100BD680100EB
:10717000F1660100F0B5D646474680B583B00400FD
:107180000F001600002804D0036C002B03D072B649
:10719000FEE772B6FEE70368002B55D04A4B9847CE
:1071A0000190A36B9846E36B984567D24523E55C55
:1071B0006DB22000454B9847454B1B88034218D0C1
:1071C00035239A46002E07D12000424B9847424B68
:1071D0001B5C3033DBB29A4620003E4B98473E4B57
:1071E0001E5C20003D4B9847C2B2310050463C4BDC
:1071F00098472000374B9847374B1E5C2000374B91
:107200009847A26B0132D2B2C1B23000354B9847D9
:1072100043460133A3636B1C2AD1A36C002B18D007
:1072200000212000304B98470235002803D0002F62
:1072300045D001233B6001982C4B9847280003B0B0
:107240000CBC90469A46F0BD4368002BA6D072B69F
:10725000FEE7636A0125002BEDD020002430244B8B
:1072600098470028E7D0002F2BD001233B60E2E7AE
:1072700001356DB24523E5540125DCE72000134BB1
:107280009847134B1B8800250342D4D05D35002E50
:1072900006D120000F4B98470F4B1D5C5835EDB2BF
:1072A00020000C4B98470C4B1F5C20000B4B984761
:1072B000C2B2390028000A4B98470025BBE70125D8
:1072C000B9E70125B7E7C046E9660100615301004F
:1072D000C0000020E1520100B8000020515301001D
:1072E00035610100095C0100BD680100F166010023
:1072F0007984010010B50022014B984710BDC046AB
:1073000075710100F0B5CE46474680B585B0041EC4
:10731000009101920BD0009B002B0AD0A44B984700
:1073200000280BD1019B002B0CD072B6FEE772B681
:10733000FEE7036C002BF1D072B6FEE700259D4BF3
:107340009846B4E00025FAE7009920009A4B984748
:107350009A4B98479A4B98479A4B1B88034219D0EF
:107360002000994B9847974B1B88034212D020006E
:10737000964B98469847964F3D5C2835EDB22000D5
:10738000C0473F5C2000934B9847C2B239002800A9
:10739000914B984720008D4FB8478D4D2B5C9946F7
:1073A00020008C4B9847C3B298462000B8472B5C0E
:1073B000022B1ED1814B9847884B9847C2B2414659
:1073C0004846874B9847013EA6632369002B07D0A8
:1073D00020001030834B9847002801D0824B9847FB
:1073E000824B98470123180005B00CBC9046994683
:1073F000F0BDA26B013AD2B2E1E77C4B98476F4BEC
:1074000098476F4B98476F4B1A8800230242EAD087
:1074100020006D4B98476B4B1A8800230242E2D044
:1074200020006A4FB8476A4E355C5035EDB22000F7
:10743000B847365C2000674B9847C2B2310028003D
:10744000654B98470023CEE702A8694B984738E080
:1074500000224423E2543FE000224523E25440E06E
:107460002000594B9847574B1B8803424ED02000B1
:10747000564FB847564E355C6835EDB22000B847D8
:10748000365C2000534B9847C2B231002800524B63
:1074900098473BE0200024300199564B9847200044
:1074A000554B9847554B9847002846D00125C04773
:1074B000A66B002E00D047E7019B002B9DD0002D2E
:1074C000C2D04A4B98474E4B98473A4B9847442373
:1074D000E35C5BB20133BBD04523E35C5BB20133B9
:1074E000BAD0424B984701A902A8464B98470028BA
:1074F0002CD12000444B9847002821D02F4B98478F
:107500002F4B98472F4B1B880342A9D120002F4BAC
:1075100098472F4B1B5C022BBCD0284B9847284B1D
:107520009847284B1B880342B4D0244B98472B4BD9
:107530009847C0B2354B9847ACE72B4B9847B5E717
:1075400020002D4B98472D4B9847AFE720002A4B42
:1075500098472A4B984720002B4B98470028A5D0E6
:10756000164B9847164B9847164B1A880023024231
:1075700000D138E72000144B9847124B1A8800239B
:10758000024200D12FE72000104FB847104E355C63
:107590005035EDB22000B847365C20000D4B9847BF
:1075A000C2B2310028000C4B984700231BE7C046AD
:1075B0003D860100B1660100D9690100B1540100A6
:1075C000FD520100C000002061530100E1520100A2
:1075D000B80000205153010035610100ED52010057
:1075E000095C010079840100A1660100C9660100FF
:1075F0005D850100B1830100016A0100C97F0100BE
:10760000217E01007585010025680100615C010093
:10761000F0B5CE46474680B585B0041E019104D032
:10762000036C002B03D072B6FEE772B6FEE7B24BD6
:107630009847002804D1019B002B06D072B6FEE7C4
:1076400000250027AD4B9846BDE000250027F9E74F
:10765000AB4B9847AB4B9847AB4B1B88034219D0B9
:107660002000AA4B9847A84B1B88034212D0200049
:10767000A74B98469847A74F3D5C2835EDB22000B0
:10768000C0473F5C2000A44B9847C2B23900280095
:10769000A24B984720009E4FB8479E4D2B5C9946C1
:1076A00020009D4B9847C3B298462000B8472B5CFA
:1076B000022B24D1924B9847994B9847C2B241462E
:1076C0004846984B9847013EA6632368002B02D199
:1076D000954B984760602369002B07D0200010303D
:1076E000924B9847002801D0914B9847914B98476F
:1076F0000125280005B00CBC90469946F0BDA26B50
:10770000013AD2B2DBE7002D01D072B6FEE7894B19
:1077100098477B4B98477B4B98477B4B1B88034292
:10772000E7D02000794B9847774B1B880342E0D085
:107730002000774B98469847764F3E5C5036F6B21D
:107740002000C0473F5C2000734B9847C2B239000D
:107750003000724B9847CCE702A8774B98473CE043
:1077600000224423E25443E000224523E25444E053
:107770002000664B9847644B1B88034252D0200080
:10778000634B99469847634F3E5C6836F6B22000DB
:10779000C8473F5C2000604B9847C2B239003000B8
:1077A0005E4B98473EE02368002B52D020002430E7
:1077B0000199624B98472000614B9847614B98476D
:1077C00000284FD00127C047A66B002E00D03FE70E
:1077D000019B002B97D0002FBED0564B98475A4B99
:1077E0009847464B98474423E35C5BB20133B7D0DC
:1077F0004523E35C5BB20133B6D04E4B984701A9F9
:1078000002A8524B9847002835D12000504B98478A
:1078100000282AD03A4B98473A4B98473A4B1B8856
:107820000342A5D120003A4B98473A4B1B5C022BF0
:10783000B9D0334B9847334B9847334B1B8803429F
:10784000B1D02F4B9847364B9847C0B2414B984721
:10785000A9E72A4B984760683F4B98470500354B8E
:107860009847A3E7324B9847ACE72000344B984742
:10787000344B9847A6E72000314B9847314B984747
:107880002000334B984700289CD0002D0ED01B4B76
:107890009847636A0021002B03D0236B1B680531D6
:1078A000C91A60682D4B9847224B9847144B98474C
:1078B000144B9847144B1B880025034200D118E74E
:1078C0002000124B9847104B1B88034200D110E751
:1078D00020000F4FB8470F4E355C5035EDB22000F9
:1078E000B847365C20000C4B9847C2B231002800E4
:1078F0000A4B98470025FCE63D860100B166010071
:10790000B1540100FD520100C0000020615301008C
:10791000E1520100B800002051530100356101001F
:10792000ED520100095C01006D89010079840100BC
:10793000A1660100C96601005D850100B1830100F7
:10794000016A0100C97F0100217E010075850100E7
:1079500025680100615C01005D8601006988010005
:10796000C06C7047C16470475023C05C7047000012
:1079700070B504000D001600114B98474423E35CDA
:107980005BB201330DD04523E35C5BB201330CD015
:107990000C4B9847A36B002B0BD020000A4B984749
:1079A00070BD00224423E254EDE700224523E25457
:1079B000EEE72000243032002900044B9847ECE722
:1079C000B1660100C9660100016A0100DD830100A2
:1079D000084B1B681B68002B07D0064B1B68DB6835
:1079E000DB685A68044B1A60704701225242024B0E
:1079F0001A60F9E7183B0020C83B0020F0B5D646D6
:107A00004F464646C0B5144B9946144B9846144F02
:107A1000144B9A464B461B68002B16D0C047FB6898
:107A2000DD68281DD047104A1368013B13600A4CDB
:107A30002368013B23600D4B9847286B0C4EB047E1
:107A40002800B0472368002BE8D10A4B1B68012BA4
:107A5000E0D9094B9847DDE7883B0020B16601007B
:107A6000FC3B00207B650100843B0020C9660100CF
:107A700005680100203B0020A166010070B50400EC
:107A80000D00174B1E68174B18680430164B9847AB
:107A9000631C13D03419134B1B685C60A64216D8C4
:107AA000124B18680F4B19680431114B9847114B52
:107AB0001B689C4212D20F4B1C600FE0002DE9D0D6
:107AC000084B196804310C480C4B984706E00C4BE6
:107AD0001868044B19680431054B984770BDC046BF
