:10000000D82C002079690000716A0000716A000034
:1000100000000000000000000000000000000000E0
:10002000000000000000000000000000716A0000F5
:100030000000000000000000716A0000E5010000FF
:10004000716A0000716A0000716A0000716A000044
:10005000716A0000716A0000716A0000716A000034
:10006000716A0000053C00001D3C0000353C0000AA
:100070004D3C0000653C00007D3C0000716A0000C2
:10008000716A0000716A0000716A0000716A000004
:10009000716A00000000000000000000716A0000AA
:1000A000716A0000716A0000716A0000716A0000E4
:1000B0000000000010B5064C2378002B07D1054B3B
:1000C000002B02D0044800E000BF0123237010BDC4
:1000D00094000020000000006CCF0000084B10B519
:1000E000002B03D00749084800E000BF0748036819
:1000F000002B00D110BD064B002BFBD09847F9E731
:1001000000000000980000206CCF00006CCF0000C1
:100110000000000080B582B000AF78607B68002BE3
:100120000CD0084B7A685A60064B00229A60C04691
:10013000044B1A6880235B021340F9D0C046BD46C9
:1001400002B080BD10E000E080B500AF00200F4B92
:10015000984702000E4B1A600D4B18680D4BFA229F
:100160009100984703001A00094B1A60084B186861
:10017000084BFA229100984703001A00064B1A60B8
:10018000064B05221A60C046BD4680BD2D650000A5
:1001900000000020E5B000000400002010E000E0B6
:1001A00080B582B000AF786004E0074B1B68180090
:1001B000064B98477B685A1E7A60002BF5D1C046E3
:1001C000BD4602B080BDC046000000201501000001
:1001D00080B500AF024B1B681800BD4680BDC0460D
:1001E000B000002080B500AF034B1B685A1C024BC7
:1001F0001A60C046BD4680BDB000002080B584B006
:1002000000AF0200FB1D1A700F23FB18FA1D1278B5
:10021000D2091A700E23FB18FA1D127852091A70AF
:100220000D4BBB600F23FB181B78002B0FD10F2346
:10023000FB181B789B0010229446BC446344083B87
:100240001A680E23FB181B78DB01D31800E000238B
:100250001800BD4604B080BD0044004180B582B0A6
:1002600000AF0200FB1D1A70FB1D1B781800034B2A
:10027000984703001800BD4602B080BDFD01000094
:1002800080B582B000AF78607B6800221A707B680E
:1002900001225A707B6800229A70C046BD4602B0A7
:1002A00080BD000080B584B000AF0200FB1D1A7055
:1002B000BB1D0A1C1A70FB1D1B7818000D4B9847BC
:1002C0000300FB60FB1D1B781F22134001229A4094
:1002D0001300BB60BB1D1B78002B03D0FB68BA6802
:1002E0009A6102E0FB68BA685A61C046BD4604B034
:1002F00080BDC0465D02000080B582B000AF3B1DEE
:1003000018000E4B98473B1D01221A703B1D190027
:1003100017200B4B9847012117200A4B98473B1D8C
:1003200000221A703B1D01225A703B1D1900372014
:10033000034B9847C046BD4602B080BD8102000015
:1003400035300000A502000080B582B000AF074B39
:100350007B607B681B7DDBB21A00012313405A1EB1
:100360009341DBB21800BD4602B080BD00400041A1
:1003700080B582B000AF02003960FB1D1A70FB1D12
:100380001B78012B0AD0022B0FD0002B14D10E4B5F
:100390000D4A91693A680A439A610FE00A4B0A4A8A
:1003A000D1693A680A43DA6108E0074B064A116AE4
:1003B0003A680A431A6201E0172300E0002318009C
:1003C000BD4602B080BDC0460004004080B584B088
:1003D00000AF78602F4BFB60042101202E4B984723
:1003E000FB682022FF321A832C4B984703001A0027
:1003F00001235340DBB2002B01D0052345E07B688D
:100400001B781B021A00C0239B001A407B685B7894
:10041000DB011900FF230B401A437B689B785B00CC
:1004200019001E230B401A437B68DB789B041900DC
:100430008023DB020B401A437B681B791B041900E5
:10044000C0239B020B401A43FB685A60FB689B6801
:100450005B035B0FDBB21A00082393409AB2104B88
:100460001A80FB689B689AB20D4B5A807B685A7859
:100470000B4B1A71FB681B8B9BB21A0080235B002D
:10048000134001D0102300E000231800BD4604B043
:1004900080BDC046004000417103000049030000D8
:1004A000B400002080B586B000AF78602A4B7B6135
:1004B0007B692022FF321A837B699B683B613B6921
:1004C0001B0C0722134008229A401300DAB27B6803
:1004D0001A703B699AB27B685A80204B1B889BB28A
:1004E0001B099AB20E23FB1807210A401A800E231B
:1004F000FB181B88072B03D17B6800225A600AE097
:100500000E23FB181B880622D31A04229A401300DC
:100510001A007B685A60114B1B889AB20C23FB1897
:1005200007210A401A800C23FB181B88072B03D1D4
:100530007B6800229A600AE00C23FB181B880722C4
:10054000D31A04229A4013001A007B689A60C046AE
:10055000BD4606B080BDC04600400041004080005E
:1005600090B583B000AF164B984703003B60FC1D6D
:100570000020144B984703002370FB1D1B78012BB0
:1005800006D1C0460020104B98470300022BF9D13A
:100590000B4B984702003B68D21AFA235B009A4241
:1005A00003D9FB1D01221A7003E0FB1D1B78002BF1
:1005B000DDD1FB1D1B781800BD4603B090BDC046C1
:1005C000D1010000691E0000DD19000080B582B075
:1005D00000AF78607B681B7C002B0BD07B689B682E
:1005E0005A1C7B68D968104B100098470B001A0002
:1005F0007B689A607B685B685A1C7B68D9680A4B89
:10060000100098470B001A007B685A607B685A6894
:100610007B689B68D31A5A425341DAB27B681A74DA
:10062000C046BD4602B080BDF1B1000080B582B0C9
:1006300000AF78607B6800221A747B689B685A1C44
:100640007B68D968054B100098470B001A007B683F
:100650009A60C046BD4602B080BDC046F1B1000000
:1006600080B584B000AF786039601420094B98479A
:100670000300FB60FB687A681A60FB683A68DA601E
:10068000FB681800044B9847FB681800BD4604B08F
:1006900080BDC0466DB400009D06000080B582B0EC
:1006A00000AF78607B6800225A607B6800229A6005
:1006B0007B6800221A74C046BD4602B080BD0000AF
:1006C00080B582B000AF78600A00FB1C1A707B68AE
:1006D0001A687B685B68D318FA1C12781A707B68FA
:1006E0001800034B9847C046BD4602B080BDC046C7
:1006F000CD05000080B584B000AF7860396001237B
:100700005B42FB607B6818000D4B984703001A00A2
:1007100001235340DBB2002B0DD07B681A687B6845
:100720009B68D3181A783B681A707B681800054BD1
:1007300098470023FB60FB681800BD4604B080BDED
:10074000490700002D06000080B582B000AF786038
:100750007B681B7C01225340DBB2002B07D07B68F7
:100760005A687B689B689A4201D1012300E000230C
:100770001A1C01231340DBB21800BD4602B080BD35
:1007800080B582B000AF0200FB1D1A70064BFA1D47
:10079000127811001F220A40012191400A001A60BC
:1007A000C046BD4602B080BD00E100E080B582B029
:1007B00000AF0200FB1D1A70074AFB1D1B781900D1
:1007C0001F230B40012199400B0019008023D150B9
:1007D000C046BD4602B080BD00E100E080B584B0F7
:1007E00000AF78607B681B68FB60FB68DB695A1EA2
:1007F0009341DBB21800BD4604B080BD80B582B025
:1008000000AF7860C0467B681800044B9847031E11
:10081000F9D1C046BD4602B080BDC046DD0700002C
:1008200080B582B000AF78607B688022D2051A6004
:100830007B6800225A607B68FF221A817B68002255
:100840009A727B680022DA727B68962292011A62A1
:100850007B682422012199547B6825220121995427
:100860007B682622002199547B6827220021995415
:100870007B6800229A627B6888225203DA607B6878
:100880002C22002199547B682D22002199547B68E9
:1008900000221A637B6800225A637B6800229A63F5
:1008A0007B680022DA637B6800225A617B68002241
:1008B0001A827B680022DA767B6800221A767B68CF
:1008C00000221A777B6800225A767B6813229A7678
:1008D0007B6800225A77C046BD4602B080BD00004A
:1008E00080B584B000AF78607B681B68FB607B6874
:1008F0001B681800094B984703001800084B9847DD
:100900007B681800074B9847FB681B6802221A4354
:10091000FB681A60C046BD4604B080BDC13B000004
:1009200081070000FD07000080B584B000AF78604B
:100930007B681B68FB607B681B6818000A4B984744
:1009400003001800094B98477B681800084B98472C
:10095000FB681B68022293431A00FB681A60C046BA
:10096000BD4604B080BDC046C13B0000AD070000DD
:10097000FD07000080B582B000AF78600A00FB1C64
:100980001A707B6831229B5C5AB2FB1C1B780121D8
:1009900099400B005BB213435BB2D9B27B68312242
:1009A0009954C046BD4602B080BD000080B582B0FB
:1009B00000AF78600A00FB1C1A70C046FB1C1B7855
:1009C0009AB27B6811001800044B9847031EF5D1BA
:1009D00000231800BD4602B080BDC046D9520000B9
:1009E00080B584B000AF786039600E23FB18002218
:1009F0001A80C0460E23FA187B6811001800074BB6
:100A00009847031EF6D10E23FB181B88DAB23B6809
:100A10001A70C046BD4604B080BDC0463D530000BC
:100A200080B584B000AFF860B9607A600D4BFA68A9
:100A30001A600D4B0D4A1A600D4B0E4A1A600E4B90
:100A40001B689B68002118000C4B98470A4B1B68D9
:100A50005B6800211800094B9847C046BD4604B0AA
:100A600080BDC046F8090020F4090020AD0900004F
:100A7000F0090020E10900003000002019B6000054
:100A800080B500AF8023DA000F4B110018000F4B28
:100A9000984702000E4B1A608023DA000D4B1100BC
:100AA00018000A4B984702000B4B1A600B4B9847F3
:100AB0000B4B98470B490C4B012218000B4B9847E6
:100AC000C046BD4680BDC046C80500206106000086
:100AD000C0010020C8010020CC090020B50B000097
:100AE0003D0C0000C40100208C010020F9550000DD
:100AF00080B500AF034B1800034B9847C046BD4676
:100B000080BDC0468C0100202909000080B584B05A
:100B100000AF78607B68002B2AD00023FB600BE0DD
:100B2000154B18687A68FB68D3181B781900134BAB
:100B30009847FB680133FB607B681800104B9847AF
:100B40000200FB689A42EBD80E4B012118000E4BB5
:100B50009847031E0CD1084B1B680C4A1100180063
:100B60000B4B98470949074B01221800094B98473E
:100B7000C046BD4604B080BDCC090020C1060000BF
:100B8000FDB700008C01002041560000C80900207C
:100B9000F5060000B15500000EB480B583B000AF7B
:100BA0000200FB1D1A70C046BD4603B080BC08BCE5
:100BB00003B0184780B590B000AF3B001800174B4A
:100BC00098473B00E12252021A623B00C422920382
:100BD000DA603B00012252421A633B00012252427A
:100BE0005A633B000E4A9A633B000E4ADA63C046E2
:100BF0003A000D490D4B18000D4B9847031EF7D1D5
:100C00003A000949094B18000A4B9847074B18004E
:100C1000094B9847C046BD4610B080BD2108000072
:100C200003002A0003002B00001800428C01002062
:100C300065500000210A0000E108000080B500AF07
:100C40000C490D4B002218000C4B98470C490A4BDD
:100C500001221800094B9847074B00211800094B47
:100C60009847054B01211800064B9847C046BD46E2
:100C700080BDC046F90C00008C01002069550000C1
:100C8000890C00007509000080B584B000AF786061
:100C9000134B1800134B9847114B1B78082B0CD1A2
:100CA0000C23FB1820221A700C23FB1808225A7000
:100CB0000C23FB1818000B4B98470B4B1A68084B7A
:100CC0001B7819001000094B98470549084B012271
:100CD0001800084B9847C046BD4604B080BDC046CA
:100CE000C40100200D0B0000C0010020C10600005F
:100CF0008C010020F955000080B582B000AF78600B
:100D0000094B1B68094A11001800094B984703005A
:100D1000013305D00549074B01221800064B9847BF
:100D2000C046BD4602B080BDCC090020C8090020E5
:100D3000F50600008C010020B155000090B587B089
:100D400000AFF8600C00100019000A23FB18221CE9
:100D50001A800823FB18021C1A80FB1D0A1C1A703B
:100D60000A23FB181A880823FB181B88D31A073399
:100D7000002B00DA0733DB10013BFA68D3181B782D
:100D800019000823FB181B880722134019410B0088
:100D90007B610823FB181B8807221A40FB1D1B7868
:100DA000D318082B1CDD0A23FB181A880823FB180C
:100DB0001B88D31A0733002B00DA0733DB10023B02
:100DC000FA68D3181B7819000823FB181B88072220
:100DD00013400822D31A99400B007A6913437B61B0
:100DE0000823FB181B8807221A40FB1D1B78D31809
:100DF000102B1CDD0A23FB181A880823FB181B88FC
:100E0000D31A0733002B00DA0733DB10033BFA68F1
:100E1000D3181B7819000823FB181B8807221340DE
:100E20001022D31A99400B007A6913437B6108237F
:100E3000FB181B8807221A40FB1D1B78D318102BA8
:100E40001CDD0A23FB181A880823FB181B88D31AF9
:100E50000733002B00DA0733DB10033BFA68D318A3
:100E60001B7819000823FB181B8807221340102247
:100E7000D31A99400B007A6913437B61FB1D1B78E1
:100E800001229A4013005A1E7B6913407B617B69E3
:100E90001800BD4607B090BD80B582B000AF234BAF
:100EA0007B60234B00211800224B984703001A0057
:100EB00001235340DBB2002B01D0002331E01E4B55
:100EC000984703003B603B680122134006D07B68D3
:100ED0005A1E7A60002BE4D1002322E0C046174B53
:100EE00000211800134B984703001A0001235340B8
:100EF000DBB2002B01D0002313E00F4B9847020018
:100F0000C023DB051A408023DB059A4208D10C4B35
:100F10001A680B4B1B68DB7A08210B43DBB2D372D8
:100F200001231800BD4602B080BDC046EE1B000084
:100F30000111000031290000712B00003A0500006A
:100F4000E000002080B586B000AF0200FB1D1A70E3
:100F50002E4B3B612E4B002118002E4B984703006F
:100F60001A0001235340DBB2002B01D0002348E0DC
:100F700000237B61FB1D1B78002B04D07B69802242
:100F8000D20513437B617B69234A19001000214B72
:100F9000984703001A0001235340DBB2002B01D015
:100FA00000232EE01D4B98470300FB60FB680122E5
:100FB000134006D03B695A1E3A61002BCAD1002368
:100FC0001FE0C046164B00211800124B9847030043
:100FD0001A0001235340DBB2002B01D0002310E0A4
:100FE0000E4B984702008023DB05134008D00D4BC1
:100FF0001A680C4B1B68DB7A08210B43DBB2D372F7
:1010000001231800BD4606B080BDC046EE1B00009F
:10101000371100003129000029110000712B000058
:101020003A050000E000002080B500AF0123180061
:10103000BD4680BD80B584B000AF78607B6800227B
:101040001A70D5235B00144A19001000134B9847FF
:1010500003001A0001235340DBB2002B01D001230F
:1010600015E00F4B98470300FB60FB68013301D18B
:1010700001230CE0FB681B051A0DD5235B009A4287
:1010800001D0002303E07B6801221A7001231800BD
:10109000BD4604B080BDC04608550000312900009F
:1010A000712B000090B589B002AF786080239A0060
:1010B00041480023009301230021404CA047030036
:1010C0001A0001235340DBB2002B01D000236EE055
:1010D0001623FB1800221A8014E01023FB181800B6
:1010E000374B984703001A0001235340DBB2002B13
:1010F00001D000235BE01623FB181A881623FB1887
:1011000001321A801623FB181B88312BE5D93B6965
:10111000DBB202221340DAB27B681A70294B1B68DB
:101120000E3318000C233E228021274CA0470200DA
:10113000264B9A4235D114E00C23FB181800204BA3
:10114000984703001A0001235340DBB2002B01D063
:1011500000232CE01623FB181A881623FB180132F3
:101160001A801623FB181B88352BE5D9154B1B68F5
:10117000FA6852085A6014E00C23FB181800104B50
:10118000984703001A0001235340DBB2002B01D023
:1011900000230CE01623FB181A881623FB180132D3
:1011A0001A801623FB181B887F2BE5D90123180012
:1011B000BD4607B090BDC04608110800592900007F
:1011C000852B0000E00000203D0D0000FF0F000017
:1011D00090B583B002AF154B1B681B8919041448E6
:1011E0000123009301231022124CA04703001A0090
:1011F00001235340DBB2002B01D0002312E00B4B44
:101200001B680E33012118000B4B984703001A008E
:1012100001235340DBB2002B01D0002302E0074B37
:10122000984703001800BD4601B090BDE0000020C3
:101230000911080059290000292C0000CD2C0000BC
:10124000B0B584B000AF454B1B680E3318000423C3
:101250007A228021424CA0470300022B11D002D8F1
:10126000012B09D003E0032B10D0042B13D03B4BF0
:101270001B6812221A7313E0384B1B6814221A736E
:101280000EE0364B1B6822221A7309E0334B1B68B1
:1012900030221A7304E0314B1B6840221A73C04697
:1012A0002E4B1B680E3318000823602280212C4C23
:1012B000A0470300FB60FB6807221A40294B9200FD
:1012C000D358BB60FB68DB080F221A40264B920004
:1012D000D3587B60214B1B68BA6879684A43FA216E
:1012E00089004A431A601D4B1B680E3318000C23FB
:1012F0003E2280211A4CA04702001C4B9A4228D063
:10130000164B1B680E3318000C233E228021144C10
:10131000A04703005C1C114B1B680E33180003230D
:101320002F2280210E4DA847030002339C4023004A
:101330003B600A4B1C68094B1B680E3318000423E2
:1013400050228021064DA84702003B6893409B0A2B
:101350006360C046BD4604B0B0BDC046E00000209A
:101360003D0D000048C30000A4C30000FF0F0000B3
:10137000B0B584B000AF354B1B680E33180008239E
:1013800060228021324CA0470300FB60FB680722EB
:101390001A40304B9200D358BB60FB68DB080F2229
:1013A0001A402D4B9200D3587B60284B1B68BA68BB
:1013B00079684A43FA2189004A431A60234B1B6823
:1013C0000E33180002237E228021214CA047031EE9
:1013D0000FD01E4B1C681D4B1B680E3318001623C4
:1013E000302280211A4DA847030001335B0263605D
:1013F00028E0164B1B680E3318000C233E22802178
:10140000134CA04703005C1C104B1B680E331800E4
:1014100003232F2280210E4DA847030002339C4056
:1014200023003B60094B1C68084B1B680E331800F7
:10143000042350228021064DA84702003B689340B8
:101440009B0A6360C046BD4604B0B0BDE00000200A
:101450003D0D000048C3000064C3000080B582B0A9
:1014600000AF114B7B60114B00211800104B9847C7
:1014700003001A0001235340DBB2002B01D00023EC
:101480000EE00C4B98470200FF23134006D07B6808
:101490005A1E7A60002BE6D1002301E0C0460123EA
:1014A0001800BD4602B080BD400D03000D1B0000BA
:1014B00031290000712B000090B585B002AF384B88
:1014C0001B681B891B04374A19001000364B9847CC
:1014D00003001A0001235340DBB2002B01D000238C
:1014E00059E0324801230093012308220021304CA7
:1014F000A04703001A0001235340DBB2002B01D0A8
:10150000002348E03B00012118002A4B98470300C4
:101510001A0001235340DBB2002B01D000233AE034
:10152000254B984703001A0001235340DBB2002BE0
:1015300001D000232FE038000423382240211F4C23
:10154000A0470300012B08D002D3022B0AD01CE0D5
:10155000134B1B6810221A731CE0114B1B681A22D4
:101560001A7317E0380001232F224021134CA047A3
:101570000300012B04D10A4B1B6830221A7309E0C7
:10158000074B1B6820221A7304E0054B1B681022CE
:101590001A73C04601231800BD4603B090BDC04673
:1015A000E00000203711000031290000331108004D
:1015B00059290000292C0000CD2C00003D0D000011
:1015C00080B582B000AF0200FB1D1A70FB1D1B78B6
:1015D000002B01D0042347E0FB1D1B78244A5B014C
:1015E000D3180A331B78042B08D0FB1D1B78204A24
:1015F0005B01D3180A331B78032B1DD1FB1D1B780D
:101600001B4A5B01D3180A3302221A70FB1D1A7899
:10161000174B52011749D150FB1D1B78144A5B012F
:10162000D3180D3301221A70FB1D1B78104A5B0181
:10163000D3181E3300221A700F4BFA1D12781A703D
:10164000FB1D1B785A010A4BD2180C4B1A600C4B2D
:101650009847FB1D1B78064A5B01D3180A331B7899
:10166000023B5A425341DBB21800BD4602B080BD76
:10167000BC000020801A0600DC000020E0000020F2
:1016800085160000B0B500AF094B1878094B1B68F0
:101690001968084B1B685A7B064B1B689B7F5C1EB6
:1016A000A341DBB2044CA047C046BD46B0BDC04616
:1016B000DC000020E00000201928000080B500AF09
:1016C000054B1B78002B04D1034B1B781800034BF0
:1016D0009847C046BD4680BDDC000020A128000020
:1016E00080B582B000AFFB1D00221A70594B1B68F9
:1016F0000122DA72574B1B6800221A73554B1B6884
:1017000000221A81544B984788235B01002118005E
:10171000524B984703001A0001235340DBB2002BC1
:1017200001D0002392E0FB1D18004D4B98470300A9
:101730001A0001235340DBB2002B01D0002385E0C7
:10174000484B984703001A0001235340DBB2002B9B
:1017500001D000237AE03F4B1B68DB7A1A0001239B
:10176000134021D0FB1D1B7818003F4B9847030006
:101770001A0001235340DBB2002B07D0354B1B6806
:101780000222DA72394B984703005FE0384B0021A0
:101790001800324B984703001A0001235340DBB274
:1017A000002B01D0002351E02A4B1B68DB7A1A0082
:1017B0000123134017D02F4B984703001A00012331
:1017C0005340DBB2002B01D000233FE02A4B984767
:1017D0002A4B984703001A0001235340DBB2002B29
:1017E00001D0002332E01B4B1B68DB7A1A00012377
:1017F000134016D0174B1B68DB7A1A0008231340DE
:101800000FD180239B001E4A19001000134B9847EC
:1018100003001A0001235340DBB2002B01D0002348
:1018200014E00C4B1B68DB7A1A00012313400AD02A
:10183000144B984703001A0001235340DBB2002BDE
:1018400001D0002302E0104B984701231800BD4649
:1018500002B080BDE0000020E52800003129000032
:101860003510000029100000450F00008D18000001
:101870003B110000D111000071130000B9140000E9
:10188000101100005D1400008516000080B582B0C4
:1018900000AF88235B0100211800324B98470300FA
:1018A0001A0001235340DBB2002B01D0002355E086
:1018B0002D4B984703001A0001235340DBB2002B45
:1018C00001D000234AE0294B00211800254B9847FE
:1018D00003001A0001235340DBB2002B01D0002388
:1018E0003CE0234B984703001A0001235340DBB22E
:1018F000002B01D0002331E01E4B98471E4B1B6884
:101900001B7B3F2B0CD9FB1D18001C4B9847030079
:101910001A0001235340DBB2002B01D000231DE04D
:1019200080239B00164A190010000E4B98470300B5
:101930001A0001235340DBB2002B01D000230DE03D
:10194000104B984703001A0001235340DBB2002BD1
:1019500001D0002302E00C4B984701231800BD463C
:1019600002B080BD31290000990E00003B1100003B
:10197000D111000041120000E0000020A51000007D
:10198000101100005D1400008516000080B582B0C3
:1019900000AFFB1D00221A700CE0FB1D1B780C4AE7
:1019A0005B01D3180A3304221A70FB1D1A78FB1D41
:1019B00001321A70FB1D1B78002BEED0054BFF2265
:1019C0001A70054B9847C046BD4602B080BDC04660
:1019D000BC000020DC0000205127000090B585B03D
:1019E00000AF0200FB1D1A700F23FC18FB1D1B78B3
:1019F0001800134B9847030023700F23FB181B7824
:101A0000012B05D00F4B98470F23FB181B7812E0D2
:101A10000D4B9847031E07D00C4B1B6800229A728F
:101A2000084B9847012306E0084B1B6803229A7273
:101A3000044B984703231800BD4605B090BDC0462F
:101A4000C1150000BD160000E1160000E0000020F6
:101A500080B582B000AF0200FB1D1A70FB1D1B7821
:101A60001800074B9847031E01D0002304E0054BE4
:101A70009847054B1B68DB7A1800BD4602B080BD55
:101A8000C1150000BD160000E000002080B582B046
:101A900000AF0200FB1D1A70FB1D1B781800074BDE
:101AA0009847031E01D0002304E0054B9847054BDF
:101AB0001B685B681800BD4602B080BDC115000000
:101AC000BD160000E000002080B582B000AF02002B
:101AD000FB1D1A7000231800BD4602B080BD000037
:101AE00090B589B002AF39601100FB1D021C1A705D
:101AF0003B1D0A1C1A800F23FC18FB1D1B781800C5
:101B0000294B9847030023700F23FB181B78002BE9
:101B100003D00F23FB181B7841E0244B98470300A8
:101B20001A0001235340DBB2002B03D0204B98470F
:101B3000052334E03B1D1B88012B02D91D4B7B6123
:101B400001E01D4B7B611D4B1B68DB7A1A000823EB
:101B5000134002D03B683B6102E03B685B023B61A3
:101B60003B1D1C8880239A00396978690123009302
:101B70002300134CA04703001A0001235340DBB29B
:101B8000002B03D00A4B9847052308E00D4B3A1D64
:101B900012881A800C4B3A1D12881A8000231800F4
:101BA000BD4607B090BDC046C11500005D140000E1
:101BB000BD1600001211100011110800E0000020F5
:101BC00059290000E6000020E400002080B582B022
:101BD00000AF78600A00BB1C1A80BB1C1A887B68A7
:101BE000110018000D4B984703001A0001235340C1
:101BF000DBB2002B04D00A4B00221A80052308E038
:101C0000074B1A88BB1C1B88D31A9AB2044B1A8044
:101C100000231800BD4602B080BDC046292C00003C
:101C2000E600002080B582B000AF0200FB1D1A70F4
:101C30001C4B984703001A0001235340DBB2002BD2
:101C400001D0052329E0FB1D1B78002B03D0164B88
:101C500000221A8005E0144B1B88002B01D00023C2
:101C60001BE0124B1B88012B03D1114B984700231B
:101C700013E0104B002118000F4B984703001A0087
:101C800001235340DBB2002B04D00A4B0021180083
:101C9000094B9847064B984700231800BD4602B0F1
:101CA00080BDC046CD2C0000E6000020E4000020EE
:101CB000BD1600000C3100003129000090B589B03C
:101CC00002AF39601100FB1D021C1A703B1D0A1C7B
:101CD0001A800F23FC18FB1D1B781800284B98470F
:101CE000030023700F23FB181B78002B03D00F2356
:101CF000FB181B783FE0FB1D1B781800214B984711
:101D0000031E03D0204B9847072334E03B1D1B885C
:101D1000012B02D91D4B7B6101E01D4B7B611D4BEB
:101D20001B68DB7A1A000823134002D03B683B6132
:101D300002E03B685B023B613B1D1C8880239A00EC
:101D400039697869012300932300134CA0470300ED
:101D50001A0001235340DBB2002B03D00A4B9847F3
:101D6000052308E00D4B3A1D12881A800C4B3A1DD2
:101D700012881A8000231800BD4607B090BDC046E7
:101D8000C1150000C91A0000BD160000199110000D
:101D900018910800E000002059290000E60000200A
:101DA000E400002080B582B000AF78600A00BB1C60
:101DB0001A80BB1C1A887B68110018000D4B9847CD
:101DC00003001A0001235340DBB2002B04D00A4B5E
:101DD00000221A80052308E0074B1A88BB1C1B88C9
:101DE000D31A9AB2044B1A8000231800BD4602B0E1
:101DF00080BDC046D92C0000E600002080B582B02E
:101E000000AF0200FB1D1A70134B984703001A0025
:101E100001235340DBB2002B01D0052318E0FB1D4A
:101E20001B78002B03D00D4B00221A8005E00B4BD2
:101E30001B88002B01D000230AE0094B1B88012BD3
:101E400003D1084B9847002302E0064B9847002334
:101E50001800BD4602B080BD992D0000E6000020AC
:101E6000E4000020BD16000080B582B000AF020083
:101E7000FB1D1A70FB1D1B781800164B98470300BA
:101E8000012B19D0022B19D0002B1ED1FB1D1B7862
:101E9000114AD35C002B01D0022317E0FB1D1B78F5
:101EA00018000E4B984703001A000323134001D07B
:101EB00000230BE0022309E0032307E0FB1D1B784E
:101EC000054A0021D154022300E001231800BD4639
:101ED00002B080BDDD190000E8000020511A0000AA
:101EE00080B500AF0020034B984703001800BD46A3
:101EF00080BDC046691E000080B582B000AF020000
:101F00003960FB1D1A70FB1D1B781800084B9847A1
:101F100003005B005A1E3B681A60FB1D1B7818000B
:101F2000044B984703001800BD4602B080BDC04670
:101F30008D1A0000691E000080B582B000AF786085
:101F40007B6819000020034B984703001800BD462A
:101F500002B080BDF91E000080B582B000AF020063
:101F6000FB1D1A70BB1D0A1C1A70FB1D1B78044A4E
:101F7000B91D0978D15401231800BD4602B080BDB7
:101F8000E800002080B582B000AF0200FB1D1A708F
:101F9000FB1D1B7819000020034B98470300180015
:101FA000BD4602B080BDC046591F000080B582B05A
:101FB00000AF0200FB1D1A70FB1D1B781800034BBD
:101FC000984703001800BD4602B080BDC91A000042
:101FD00080B500AF0020034B984703001800BD46B2
:101FE00080BDC046AD1F000080B582B000AF0200CA
:101FF000FB1D1A7001231800BD4602B080BD000011
:1020000080B500AF0020034B984703001800BD4681
:1020100080BDC046E91F000080B584B000AFB96044
:102020007A600F23FB18021C1A70B9680F23FB1883
:102030001B7801221800104B9847031E05D0022B75
:1020400001D1022313E0012311E0C0467B68012186
:1020500018000A4B9847031E01D0012307E0002017
:10206000074B9847031E01D0012300E0002318000E
:10207000BD4604B080BDC046E11A0000CD1B000083
:10208000251C000080B582B000AF786039603A68E6
:102090007B6819000020034B984703001800BD46D9
:1020A00002B080BD1920000080B584B000AFB960D7
:1020B0007A600F23FB18021C1A70B9680F23FB18F3
:1020C0001B7801221800104B9847031E05D0022BE5
:1020D00001D1022313E0012311E0C0467B680121F6
:1020E00018000A4B9847031E01D0012307E0002087
:1020F000074B9847031E01D0012300E0002318007E
:10210000BD4604B080BDC046BD1C0000A51D00003A
:10211000FD1D000080B582B000AF786039603A687C
:102120007B6819000020034B984703001800BD4648
:1021300002B080BDA920000080B584B000AF0200CD
:10214000FB1D1A700F23FB18FA1D1278D2091A70A2
:102150000E23FB18FA1D127852091A700D4BBB6042
:102160000F23FB181B78002B0FD10F23FB181B78B4
:102170009B0010229446BC446344083B1A680E231B
:10218000FB181B78DB01D31800E000231800BD46C4
:1021900004B080BD0044004180B582B000AF0200B1
:1021A000FB1D1A70FB1D1B781800034B984703009A
:1021B0001800BD4602B080BD3921000080B582B054
:1021C00000AF78607B6800221A707B6801225A7029
:1021D0007B6800229A70C046BD4602B080BD0000F8
:1021E00080B584B000AF0200FB1D1A70BB1D0A1C35
:1021F0001A70FB1D1B7818000D4B98470300FB60FD
:10220000FB1D1B781F22134001229A401300BB6064
:10221000BB1D1B78002B03D0FB68BA689A6102E0F3
:10222000FB68BA685A61C046BD4604B080BDC0466E
:102230009921000080B582B000AF0200FB1D1A702A
:10224000064BFA1D127811001F220A40012191400D
:102250000A001A60C046BD4602B080BD00E100E041
:1022600080B584B000AF78607B681B68FB60FB685A
:10227000DB695A1E9341DBB21800BD4604B080BD35
:1022800080B582B000AF78607B6801221A707B68ED
:1022900000225A607B6800229A607B68C022920309
:1022A000DA607B6800221A747B6800225A747B68AB
:1022B00001229A747B680122DA747B6800221A7505
:1022C0007B682422002199547B6818330C2200215A
:1022D00018000A4B98477B68094A9A617B6800227C
:1022E0009A627B680022DA627B6800221A637B684C
:1022F00000225A63C046BD4602B080BD93B40000C0
:10230000A086010080B582B000AF78607B680A22A9
:102310001A707B6800225A707B6800229A70C0464F
:10232000BD4602B080BD000080B584B000AF7860CB
:1023300039603B681A787B681A703B685A787B680A
:102340005A703B689A787B689A700C23FB181800C7
:102350000B4B98470C23FB1801221A707B681B78E3
:102360000C22BA1811001800064B98477B681B789E
:1023700001211800044B9847C046BD4604B080BDFB
:10238000BD21000035300000E121000080B584B09F
:1023900000AF78607B681B68FB607B681B68180077
:1023A0000B4B9847030018000A4B9847C0467B68C0
:1023B0001800094B9847031EF9D1FB681B680222DD
:1023C0001A43FB681A60C046BD4604B080BDC046D3
:1023D000C13B0000352200006122000080B584B0BE
:1023E00000AF78600A00FB1C1A700F23FB18002254
:1023F0001A7038E07B685A1C7A600E22BA181B7873
:1024000013700D23FB1800221A7027E00F23FA180F
:102410000F23FB181B78DB1813700E23FA180F23F9
:10242000FB1812781B785340DBB25BB2002B07DA43
:102430000F23FB180F22BA18127809214A401A708C
:102440000E23FA180E23FB181B78DB1813700D23CC
:10245000FB181A780D23FB1801321A700D23FB1894
:102460001B78072BD2D9FB1C1B78FA1C591E117044
:10247000002BBFD10F23FB181B785B005BB201223E
:1024800013435AB20F23FB181A700F23FB181B7843
:102490001800BD4604B080BD90B583B000AF7B1C72
:1024A000FF221A70BB1CFF221A80BB1C1B88791CE0
:1024B00011480122114CA047114B7B60BB1C1B88AB
:1024C000791C0D4801220D4CA047BB1C1B88791CB0
:1024D00009480122094CA0477B685A1E7A60002BEC
:1024E00001D1002304E07B1C1B78FF2BEDD10123DD
:1024F0001800BD4603B090BDEC000020414500002F
:10250000400D030090B583B000AFBB1CFF221A80C2
:102510007B1C00221A70184B7B607B685A1E7A6005
:10252000002B04D1154B04221A70002320E0BB1CA1
:102530001B88791C12480122124CA0477B1C1B7877
:102540001A00F02313400ED17B1C1B781A000723BE
:10255000134003D0094B07221A7002E0074B0B22ED
:102560001A70002304E07B1C1B78FE2BD5D10123BD
:102570001800BD4603B090BD20A107002F01002028
:10258000EC0000204145000090B583B000AFBB1DBA
:10259000FF221A80BB1D1B88391D04480222044CEF
:1025A000A047C046BD4603B090BDC046EC00002029
:1025B0004145000080B582B000AFFB1DFF221A70BC
:1025C000F91D0D4B012218000C4B98470C4B1B8832
:1025D000012B03D1BB1DFE221A7002E0BB1DFC22A1
:1025E0001A70B91D044B01221800044B9847C046CD
:1025F000BD4602B080BDC046EC000020654700002B
:102600003A01002090B583B000AFBB1DFF221A80B5
:10261000BB1C012252421A80B91C1B4B022218001B
:102620001A4B9847BB1D1B88791D17480122184C6F
:10263000A0477B1D1B781A001023134005D17B1D7A
:102640001B781A000123134004D1124B01221A7087
:10265000002314E07B1D1B781A001E231340042B5B
:102660000BD00A2B04D10B4B08221A70002306E072
:10267000084B0A221A70002301E0C046012318000B
:10268000BD4603B090BDC046EC0000206547000089
:10269000414500002F01002090B583B000AF1D4BD5
:1026A0001B88012B01D1012330E01A4B1B881C0031
:1026B000194B1A68194B1B881900194B10009847C1
:1026C00003009C4201D9012320E0FB1DFF221A7068
:1026D000F91D144B01221800134B9847FB1DFD22D6
:1026E0001A70F91D0F4B012218000F4B98470F4B22
:1026F000984703001A0001235340DBB2002B04D09B
:102700000B4B05221A70002300E001231800BD4680
:1027100003B090BD3A0100203401002038010020B0
:10272000E5B00000EC00002065470000992400009F
:102730002F01002080B500AF034B1800034B9847D2
:10274000C046BD4680BDC046EC0000209940000058
:1027500080B590B000AF1F4B00221A703C23FB18CD
:1027600018001D4B98473B1D18001C4B98473B1DFC
:1027700080225202DA603B1D194A9A623B1D194AB7
:10278000DA623B1D184A1A633B1D184A5A633B1D07
:102790002422002199543B1D154A9A613A1D15497E
:1027A000154B1800154B9847134B1800144B9847BE
:1027B000144B1800144B9847144B1A78114B1A708D
:1027C000104A134B11001800124B9847C046BD46E3
:1027D00010B080BD2F010020BD210000812200002B
:1027E000020010000200110002001200020013009B
:1027F000801A0600000C0042EC000020B1430000EB
:102800008D2300002C01002005230000080000207B
:10281000280100202923000090B583B000AF0400F8
:10282000396010001900FB1D221C1A70BB1D021C10
:102830001A707B1D0A1C1A70134B00221A703B6819
:10284000124A934207D9114B3B6004E03B68DB0816
:102850003A68D31A3B603A680D4B110018000D4BD3
:1028600098470300172BF1D0FB1D1A7813005B006B
:102870009B18094A9918064B01221800074B9847E4
:10288000C046BD4603B090BD2F0100208096980041
:10289000EC000020D940000028010020754600000F
:1028A00080B582B000AF0200FB1D1A70094B0022F8
:1028B0001A70FB1D1A7813005B009B18064A9918C2
:1028C000064B00221800064B9847C046BD4602B092
:1028D00080BDC0462F01002028010020EC00002010
:1028E0007546000080B582B000AFBB1DFF221A7094
:1028F0000C4B00221A70FB1D00221A700AE0B91D51
:10290000094B01221800094B9847FB1D1A78FB1D43
:1029100001321A70FB1D1B78092BF0D9C046BD4649
:1029200002B080BD2F010020EC00002065470000B0
:1029300090B585B002AF7860396039687868002357
:10294000009300230022034CA04703001800BD465B
:1029500003B090BD5929000090B589B000AFF86070
:10296000B9601900BB1D1A803B1D0A1C1A801B236D
:10297000FB18FF221A701C23FB18FF221A80724BCF
:1029800000221A70FB68DBB23F221340DBB2402208
:102990001343DAB21423FB181A70BB681B0EDAB2A9
:1029A0001423FB185A70BB681B0CDAB21423FB18F3
:1029B0009A70BB681B0ADAB21423FB18DA70BB6882
:1029C000DAB21423FB181A711423FB18052118001E
:1029D0005E4B984703001A001423FB185A711B23FF
:1029E000F9185B4B012218005A4B98471423F91829
:1029F000574B06221800574B98471323FB18FF220A
:102A00001A701C23FB181B881322B9185048012286
:102A1000514CA0471F23FB1807221A701C23FB18D8
:102A20001B881322B9184A4801224B4CA047132394
:102A3000FB181B785BB2002B10DA1F23FB181F2238
:102A4000BA181278013A1A701F23FB181B78002B52
:102A5000E4D13D4B02221A70002370E0C0461323DC
:102A6000FB181B781A003D4B1A601323FB181B78C8
:102A70001A000823134004D0334B06221A70002397
:102A80005DE01323FB181B781A000423134004D0C5
:102A90002D4B09221A70002351E01323FB181B78D9
:102AA0001A0001239A43131E04D0274B01221A70E7
:102AB000002344E0FA6880239B0113400DD0284B8B
:102AC000984703001A0001235340DBB2002B04D0C7
:102AD0001D4B03221A70002331E0FA6880239B000B
:102AE00013400ED01D4B00221A601C23FB181B88BC
:102AF0001A4917480122184CA047184B1A68174B5F
:102B00001A60FA688023DB0013400CD01C23FB18EA
:102B10001B8812490E4804220F4CA0470F4B1B681C
:102B20001ABA0E4B1A600F4BBA1D12881A800E4B40
:102B30003A1D12881A800D4B00221A6001231800DA
:102B4000BD4609B090BDC0462F010020DD23000026
:102B5000EC000020654700004145000030010020E6
:102B600099240000380100203A010020340100209F
:102B700080B500AF024B1B681800BD4680BDC04643
:102B80003001002090B585B000AF78600E23FB18AF
:102B9000FF221A801C4B00221A701C4B1A681C4B17
:102BA0001B8819001B4B100098470B1E0AD11A4BAB
:102BB000984703001A0001235340DBB2002B01D0D9
:102BC00000231DE00E23FB181B88391D1348042227
:102BD000134CA0477B687A6812681A600B4B1B681D
:102BE0001A1D0A4B1A60094B1A68094B1B881900F9
:102BF000084B100098470B1E01D10A4B9847012340
:102C00001800BD4605B090BD2F0100203401002002
:102C100038010020F1B1000005250000EC00002083
:102C2000414500008925000090B585B000AF78606F
:102C30000A00BB1C1A800A23FB18FF221A801C4BB7
:102C400000221A700023FB6025E01A4B984703000E
:102C50001A0001235340DBB2002B01D0002322E0F5
:102C60007A68FB68D118144B1A880A23FB181B8852
:102C70001248134CA047104B1B881A00FB689B1886
:102C8000FB600D4B1B881A000E4B1B68D2180D4BB6
:102C90001A600D4B9847BB1C1B88BA1C591E11802B
:102CA000002BD2D101231800BD4605B090BDC0460F
:102CB0002F0100200525000038010020EC00002035
:102CC00041450000340100208925000080B500AF97
:102CD00001231800BD4680BD80B584B000AF786088
:102CE0000A00BB1C1A80244B00221A700023FB60D0
:102CF00035E0224B98477A68FB68D118204B1A8838
:102D0000204B1800204B98471D4B1B881A00FB686E
:102D10009B18FB601A4B1B881A001C4B1B68D218AF
:102D20001A4B1A601A4B984703001A0001235340AC
:102D3000DBB2002B01D0002319E0BB1C1B88002B49
:102D40000DD0144B984703001A0001235340DBB207
:102D5000002B04D0084B05221A70002307E0BB1C8F
:102D60001B88BA1C591E1180002BC2D101231800E8
:102D7000BD4604B080BDC0462F010020B52500002F
:102D800038010020EC0000206547000034010020DD
:102D9000052600009924000080B500AF094B984734
:102DA00003001A0001235340DBB2002B04D0064B72
:102DB00005221A70002302E0044B98470300180014
:102DC000BD4680BD992400002F01002099260000F7
:102DD00080B584B000AF0200FB1D1A70FB1D1B788C
:102DE000002B08D1FB1D1A78084B5201D358984785
:102DF00003001A0000E001220F23FB181A700F23B2
:102E0000FB181B781800BD4604B080BDFCC3000051
:102E100080B584B000AF02003960FB1D1A70FB1D45
:102E20001B78002B0CD1FB1D1B780B4A5B01D318C0
:102E300004331B683A681000984703001A0000E04A
:102E400001220F23FB181A700F23FB181B781800A0
:102E5000BD4604B080BDC046FCC3000080B584B050
:102E600000AF0200FB1D1A70FB1D1B785A42534134
:102E7000DAB20F23FB181A700F23FB181B78180007
:102E8000BD4604B080BD000080B584B000AF020034
:102E9000FB1D1A70FB1D1B78002B09D1FB1D1B7835
:102EA0000A4A5B01D3180C331B689847031E01D0F4
:102EB000012200E000220F23FB181A700F23FB18D9
:102EC0001B781800BD4604B080BDC046FCC300009E
:102ED00080B586B000AFB9607A600F23FB18021C82
:102EE0001A700F23FB181B78002B0ED10F23FB1831
:102EF0001B780B4A5B01D31814331B687968BA68D6
:102F00001000984703001A0000E001221723FB1865
:102F10001A701723FB181B781800BD4606B080BD39
:102F2000FCC3000080B586B000AFB9607A600F23A3
:102F3000FB18021C1A700F23FB181B78002B0ED1F4
:102F40000F23FB181B780B4A5B01D31818331B683F
:102F50007968BA681000984703001A0000E001225F
:102F60001723FB181A701723FB181B781800BD468F
:102F700006B080BDFCC3000080B582B000AF104B2E
:102F80001B68002B12D1EFF310837B607B68002B52
:102F900009D172B6BFF35F8F0A4B00221A700A4B39
:102FA00001221A7002E0084B00221A70044B1B68C1
:102FB0005A1C034B1A60C046BD4602B080BDC046D5
:102FC0003C010020090000204001002080B500AF36
:102FD0000B4B1B685A1E0A4B1A60094B1B68002BCF
:102FE0000AD1084B1B78DBB2002B05D0064B01221F
:102FF0001A70BFF35F8F62B6C046BD4680BDC04643
:103000003C010020400100200900002080B582B072
:1030100000AF78607B6880221A707B6800225A704B
:103020007B6801229A707B680022DA70C046BD4638
:1030300002B080BD80B584B000AF02003960FB1DD6
:103040001A700C23FB181800104B98470C23FB1820
:1030500080221A703B681A780C23FB185A703B6860
:103060005A780C23FB189A703B689A780C23FB184B
:10307000DA700C23FA18FB1D1B7811001800044BA2
:103080009847C046BD4604B080BDC0460D30000024
:10309000F168000080B582B000AF78607B680022E4
:1030A0001A70C046BD4602B080BD000080B582B037
:1030B00000AF02003960FB1D1A70FB1D1B78012B4D
:1030C0000AD0022B0FD0002B14D10E4B0D4A916960
:1030D0003A680A439A610FE00A4B0A4AD1693A6892
:1030E0000A43DA6108E0074B064A116A3A680A4364
:1030F0001A6201E0172300E000231800BD4602B069
:1031000080BDC0460004004080B584B000AF786048
:103110007B681B68FB60FB689B7ADBB25BB2002BB1
:1031200001DA012300E000231800BD4604B080BD91
:1031300080B584B000AF78607B681B68FB60C046D8
:103140007B681800074B9847031EF9D1FB681B8862
:103150009BB2022213439AB2FB681A80C046BD4656
:1031600004B080BD0931000080B584B000AF786044
:103170007B681B68FB60C0467B6818000A4B984759
:10318000031EF9D1FB68C1229A71FB68C1221A7231
:10319000FB681B889BB2022293439AB2FB681A8099
:1031A000C046BD4604B080BD0931000080B584B082
:1031B00000AF78607B681B68FB607B6818000A4B77
:1031C0009847C0467B681800084B9847031EF9D102
:1031D000FB681B889BB2012213439AB2FB681A80DA
:1031E000C046BD4604B080BD693100000931000011
:1031F00080B584B000AF786039603B68DB881A0026
:103200007B68DB88D31A9B06FB603B685B799B0578
:103210001A00FB681343FB603B681B795B041A00D0
:10322000FB681343FB603B689B781B031A00FB6839
:103230001343FB607B681B7901225340DBB2002BF8
:1032400008D03B68DB78002B04D0FB688022520258
:103250001343FB603B685B789B011A00FB681343D8
:10326000FB603B681B781A00FB681343FB60FB683C
:103270001800BD4604B080BD80B584B000AFF860D2
:10328000B9607A60BB689B0E9AB2FB68DB88D31882
:103290009AB27B68DA80BB689B0DDBB20F221340C9
:1032A000DAB27B685A71BB685B0CDBB21F22134039
:1032B000DAB27B681A71FB681B79002B08D0BB68F7
:1032C0001B0BDBB21F221340DAB27B689A7010E04E
:1032D000BB681B0BDBB20F221340DAB27B689A701B
:1032E000BA6880235B0213405A1E9341DAB27B68AE
:1032F000DA70BB689B09DBB23F221340DAB27B680D
:103300005A70BB68DBB23F221340DAB27B681A7096
:10331000C046BD4604B080BD80B584B000AF7860C3
:1033200039607B681B68BB603B681A880E23FB18FA
:1033300008210A431A803B681B7901225340DBB203
:10334000002B07D00E23FB180E22BA18128840213A
:103350000A431A803B689B78002B07D00E23FB188A
:103360000E22BA18128880210A431A80BB680E22E6
:10337000BA1812881A803B68DB78002B08D0BB682B
:103380005B889BB28022D20113439AB2BB685A80F9
:103390000D23FB1800221A7017E00D23FB181A7872
:1033A00013009B009B185B0008333A68D1180D236B
:1033B000FB181A787B681800084B98470D23FB18F8
:1033C0001A780D23FB1801321A700D23FB181B7895
:1033D000002BE2D0C046BD4604B080BD01350000E0
:1033E00080B586B000AFF860B9607A60FB68BA68F3
:1033F0001A6020210020184B98471423FB1818004E
:10340000164B98471423FB1802221A701423FB183A
:1034100019000420124B98470420124B9847FB6870
:103420001800114B98477B681A79FB681A717B6802
:10343000DA78FB685A717B68DA88FB68DA800B4BB4
:10344000FA681A607A68FB6811001800084B984700
:10345000C046BD4606B080BDAD30000095300000CE
:103460000566000049660000AD310000D00900206B
:103470001933000080B584B000AF786039607B6894
:103480001B68FB607B685B7901225340DBB2002B39
:103490000AD0FB68164A5A80C0467B681800154B54
:1034A0009847031EF9D116E0FB685B889BB21A00AF
:1034B0008023DB0113400ED1FB685B889BB20E4A70
:1034C00013439AB2FB685A80C0467B681800094BC8
:1034D0009847031EF9D1FB681B69BB603A68B9685D
:1034E0007B681800054B9847C046BD4604B080BDB8
:1034F0000080FFFF0931000000C0FFFF79320000AB
:1035000080B586B000AFF860B960FB1D1A70FB682B
:103510001B687B61FB1D1B78012B01D9172321E060
:10352000BA68FB6811001800104B984703003B6114
:10353000C046FB6818000E4B9847031EF9D1FB1DCF
:103540001A787B690332D2003969D150FB1D1B7890
:10355000BA68117A7A690333DB00D31804330A1C82
:103560001A7000231800BD4606B080BDF13100007E
:103570000931000080B582B000AF78607B6800221E
:103580001A70C046BD4602B080BDF0B58DB000AF28
:10359000B860F9603A607B60002300243B627C6283
:1035A00000230024BB61FC613F23FB6253E0FB6A04
:1035B000203B002B04DB01229A4013007B610BE0CF
:1035C000FB6A2022D31A0122DA4013000021FA6A92
:1035D00091400A0013437B610122FB6A9A40130069
:1035E0003B61BB69FC69DB186441BB61FC61BB6882
:1035F0003A691A401500FB687A691A4016002B00D8
:10360000334307D0BB6901221343BB61FB6900222E
:103610001343FB617A68FB699A4219D87A68FB699F
:103620009A4203D13A68BB699A4211D8B969FA69DA
:103630003B687C68C91AA2410B001400BB61FC61A5
:103640003A6A3B6913433B627A6A7B6913437B6244
:10365000FB6A013BFB62FB6A002BA8DA3B6A7C6ACF
:1036600018002100BD460DB0F0BD80B586B000AF9A
:10367000F860B9607A601623FB1800221A80BB68D4
:103680003B61BB685A08FB689A4201D2402326E09E
:10369000BB685B083B610AE03A69FB68D31A3B618F
:1036A0001623FB181A881623FB1801321A803A6970
:1036B000FB689A42F0D21623FB181622BA18128819
:1036C000013A1A801623FB181B88FF2B01D94023CF
:1036D00005E07B681622BA1812881A8000231800A9
:1036E000BD4606B080BD0000F0B5A1B000AFF864E3
:1036F000B9647A644322BA181370002300243B672C
:103700007C6700230024BB66FC6600230024BB67A3
:10371000FC6700237B66582340229446BC446344E4
:103720001A78FB6C5A43BB6C9A4201D94023B3E030
:103730004323FB181B78002B3DD15823402294468D
:10374000BC4463441B78DBB23B6100237B61FB6CB0
:10375000BB600023FB60524CBA68FB68386979692A
:10376000A04703000C001B00FB650023BB65BB6C7E
:103770003B6000237B60B86DF96D3A687B68494C0B
:10378000A04703000C003B677C67002101223B6FD0
:103790007C6FC91AA2410B001400BB66FC66BB6EAD
:1037A0001B0CFA6E16041E43BB6E1D043300BB6770
:1037B0000023FB676AE04323FB181B78012B65D1CC
:1037C000FB6C3B6300237B63582340229446BC443C
:1037D00063441B78DBB2BB620023FB62304CBA6AE5
:1037E000FB6A386B796BA04703000C00BB65FC6576
:1037F000BB6C3B6200237B62BB6DFC6D1A00230037
:10380000386A796A274CA04703000C007B667A6E01
:1038100080239B019A4201D940233DE0BB6CBB61F0
:103820000023FB61B969FA690B005B0F1000C0004F
:10383000F863F86B1843F8630B00DB00BB63BB6DE8
:10384000FC6D1A002300B86BF96B164CA0470300FF
:103850000C00BB65FC65BB6DFC6DD9B27B6EDBB249
:10386000DB00DAB2172340208446BC4463448A1A42
:103870001A70172340229446BC4463441B785B03B0
:103880001A007B6E1343BB670023FB67BB6FFC6FA3
:103890009AB27B6C1A8000231800BD4621B0F0BD9F
:1038A000D1B300008B35000080B584B000AF0200BA
:1038B000FB1D1A70BB1D0A1C1A701A4B1B780122C3
:1038C0005340DBB2002B03D1BB1D1B78002B1BD058
:1038D0000C23FB181800144B98470C23FB18FA1DF7
:1038E00012781A700C23FB18190013200F4B9847FD
:1038F00013200F4B98470B4BFA1D12785A70094B47
:1039000001221A70002308E0064B5B78FA1D12783A
:103910009A4201D1002300E01D231800BD4604B0E7
:1039200080BDC046440100207535000005660000DA
:103930004966000080B582B000AF78600A00FB1CC9
:103940001A707B684D4A93423FD04C4A934206D846
:103950004B4A93420FD04B4A934221D089E04A4AC6
:10396000934200D15BE0494A934200D16CE0484A5F
:1039700093423FD07DE0FB1C1B78012B0AD002DC78
:10398000002B05D075E0022B06D0032B06D070E08B
:10399000404B6FE0404B6DE0404B6BE0404B69E0CB
:1039A000FB1C1B78012B0AD002DC002B05D060E049
:1039B000022B06D0032B06D05BE003235AE0394BE1
:1039C00058E0394B56E0394B54E0FB1C1B78012B77
:1039D0000AD002DC002B05D04BE0022B06D0032BD3
:1039E00006D046E0324B45E0324B43E0324B41E0FB
:1039F000324B3FE0FB1C1B78012B0AD002DC002B72
:103A000005D036E0022B06D0032B06D031E02C4B3C
:103A100030E02C4B2EE02C4B2CE02C4B2AE0FB1CF6
:103A20001B78012B0AD002DC002B05D021E0022BF1
:103A300006D0032B06D01CE0254B1BE0254B19E0DC
:103A4000254B17E0254B15E0FB1C1B78012B0AD0FA
:103A500002DC002B05D00CE0022B06D0032B06D095
:103A600007E01F4B06E01F4B04E01F4B02E01F4B1B
:103A700000E000231800BD4602B080BD00100042E7
:103A800000080042000C004200180042001C0042E6
:103A900000140042030004000300050003000600B8
:103AA000030007000300010003001E0003001F00C5
:103AB000030008000300090003000A0003000B00D4
:103AC00003001000030011000300120003001300A4
:103AD00003000C0003000D0003000E0003000F00A4
:103AE000030016000300170003001800030019006C
:103AF00090B58BB000AF78600C23FB180F4A13CA47
:103B000013C313CA13C300237B620EE00C23FB18FC
:103B10007A6A9200D3581A007B689A4202D17B6A73
:103B2000DBB206E07B6A01337B627B6A052BEDD951
:103B300000231800BD460BB090BDC0461CC4000059
:103B400080B582B000AF0200FB1D1A70C046BD46B2
:103B500002B080BD80B584B000AF02003960FB1DAB
:103B60001A70134B1B7801225340DBB2002B15D087
:103B70000023FB600CE00F4BFA6892000E49D15015
:103B80000E4BFA6892000021D150FB680133FB60B4
:103B9000FB68052BEFD9064B01221A70FB1D1A7822
:103BA000044B92003968D150C046BD4604B080BD78
:103BB0004601002048010020413B0000D4090020BC
:103BC00090B585B000AF78600823FB180B4A1168E8
:103BD000196092889A800F23FC187B681800084BA4
:103BE0009847030023700F23FB181B780822BA188C
:103BF000D35C5BB21800BD4605B090BD34C4000074
:103C0000F13A000080B500AF034B1B6800209847D5
:103C1000C046BD4680BDC0464801002080B500AF0B
:103C2000034B5B6801209847C046BD4680BDC04637
:103C30004801002080B500AF034B9B6802209847E5
:103C4000C046BD4680BDC0464801002080B500AFDB
:103C5000034BDB6803209847C046BD4680BDC04685
:103C60004801002080B500AF034B1B690420984732
:103C7000C046BD4680BDC0464801002080B500AFAB
:103C8000034B5B6905209847C046BD4680BDC046D2
:103C90004801002080B582B000AF78607B68802248
:103CA0001A707B6800225A707B6801229A707B68C8
:103CB0000022DA70C046BD4602B080BD80B584B037
:103CC00000AF0200FB1D1A700F23FB18FA1D1278BB
:103CD000D2091A700E23FB18FA1D127852091A70B5
:103CE0000D4BBB600F23FB181B78002B0FD10F234C
:103CF000FB181B789B0010229446BC446344083B8D
:103D00001A680E23FB181B78DB01D31800E0002390
:103D10001800BD4604B080BD0044004180B582B0AB
:103D200000AF0200FB1D1A70FB1D1B781800034B2F
:103D3000984703001800BD4602B080BDBD3C00009E
:103D400080B584B000AF0200FB1D1A70BB1D0A1CB9
:103D50001A70FB1D1B7818000D4B98470300FB6081
:103D6000FB1D1B781F22134001229A401300BB60E9
:103D7000BB1D1B78002B03D0FB68BA689A6102E078
:103D8000FB68BA685A61C046BD4604B080BDC046F3
:103D90001D3D000080B582B000AF78607B680022D6
:103DA0001A70C046BD4602B080BD000080B582B02A
:103DB00000AF02003960FB1D1A70FB1D1B78012B40
:103DC0000AD0022B0FD0002B14D10E4B0D4A916953
:103DD0003A680A439A610FE00A4B0A4AD1693A6885
:103DE0000A43DA6108E0074B064A116A3A680A4357
:103DF0001A6201E0172300E000231800BD4602B05C
:103E000080BDC0460004004080B500AF054B9B78E4
:103E1000DBB21A00022313405A1E9341DBB2180092
:103E2000BD4680BD0020004180B582B000AF0200D9
:103E3000FB1D1A70064BFA1D127811001F220A4052
:103E4000012191400A001A60C046BD4602B080BD03
:103E500000E100E080B582B000AF0200FB1D1A70E7
:103E6000074AFB1D1B7819001F230B4001219940B5
:103E70000B0019008023D150C046BD4602B080BD62
:103E800000E100E080B584B000AF78607B681B681B
:103E9000FB60FB68DB695A1E9341DBB21800BD462C
:103EA00004B080BD80B584B000AF78607B681B68CB
:103EB000FB607B681B6818000B4B984703001800D9
:103EC0000A4B9847C0467B681800094B9847031E69
:103ED000F9D1FB681B6802221A43FB681A60C046CE
:103EE000BD4604B080BDC046C13B0000293E000075
:103EF000853E000080B584B000AF78607B681B68A9
:103F0000FB607B681B6818000E4B98470300180085
:103F10000D4B9847C0467B6818000C4B9847031E12
:103F2000F9D1FB688F221A75FB688F221A76FB681D
:103F30001B68022293431A00FB681A60C046BD4604
:103F400004B080BDC13B0000553E0000853E00002E
:103F500080B584B000AF78607B681B68FB60FB684D
:103F60001B7EDBB21A00022313405A1E9341DBB2C0
:103F70001800BD4604B080BD80B584B000AF786045
:103F80007B681B68FB60FB681B7EDBB21A000123A9
:103F900013405A1E9341DBB21800BD4604B080BDE9
:103FA00080B584B000AF78607B681B68FB60FB68FD
:103FB0001B7EDBB21A00042313405A1E9341DBB26E
:103FC0001800BD4604B080BD80B584B000AF7860F5
:103FD0000A00BB1C1A807B681B68FB607B681800AA
:103FE0000A4B984703001A0001235340DBB2002B11
:103FF00001D0052306E0BB1C1B88DB05DA0DFB683E
:104000009A6200231800BD4604B080BD793F0000CD
:1040100080B584B000AF786039607B681B68BB6096
:104020007B6818001B4B984703001A00012353407C
:10403000DBB2002B01D0102327E00F23FB18002256
:104040001A70BB685B8B9BB21A000423134006D026
:104050000F23FB181E221A70BB6804225A837B6848
:104060009B79012B08D1BB689B6A9BB2DB05DB0DFA
:104070009AB23B681A8005E0BB689B6ADBB29AB2D1
:104080003B681A800F23FB181B781800BD4604B04C
:1040900080BDC046A13F000080B584B000AF78600D
:1040A0007B681B68FB607B681800094B9847C0461B
:1040B0007B681800074B9847031EF9D1FB681B6803
:1040C00001221A43FB681A60C046BD4604B080BD99
:1040D000F53E0000853E000090B589B000AF7860E5
:1040E00039600C23FB1800221A807B681B68FB6177
:1040F0007B681800244B9847C0467B681800234B08
:104100009847031EF9D17B681B681800204B98471D
:104110000300BB61BB6914337B617B69DBB21800B0
:104120001C4B984703003B610F23FC180C23FA1823
:1041300039693B681800184B9847030023700F2318
:10414000FB181B78002B01D0172318E00C23FB1859
:104150001B88DAB2FB691A73C0467B6818000B4BE8
:104160009847031EF9D17B6818000C4B9847C0464E
:104170007B681800054B9847031EF9D100231800EF
:10418000BD4609B090BDC046F53E0000853E00002A
:10419000F13A0000296700006B360000A53E0000E0
:1041A00090B593B000AF786039607B681B687B6323
:1041B0007B681B683B631C23FB181800754B9847F2
:1041C0001C23FB1800225A703B681B78002B03D17C
:1041D0001C23FB1800229A703B689A6A0C23FB1878
:1041E0001A603B68DA6A0C23FB185A603B681A6B4A
:1041F0000C23FB189A603B685A6B0C23FB18DA609F
:104200004723FB1800221A702CE04723FB181A786A
:104210000C23FB189200D3583B643B6C002B09D154
:104220004723FB181A783B6B110018005A4B98472C
:1042300003003B643B6C01330DD03B6CDAB21C23B2
:10424000FB181A703B6C1B0CDBB21C22BA18110055
:104250001800524B98474723FB181A784723FB183E
:1042600001321A704723FB181B78032BCDD93B680A
:104270001A787B685A713B681A7C7B689A713B6834
:104280009A7C7B68DA713B681A7D7B681A720A2314
:10429000FB1800221A800023FB630023BB633B68EA
:1042A0001B78012B29D17B681B6818003C4B984771
:1042B0000300FB62FB6A1433BB62BB6ADBB218000B
:1042C000384B984703007B623B689B692322BC18EC
:1042D0000A22BA18796A1800334B984703002370F2
:1042E0002323FB181B78002B01D017234EE00A2351
:1042F000FB181B88DAB27B6B1A733B685B68FA6B3E
:104300001343FB633B689B68FA6B1343FB633B6897
:10431000DB68FA6B1343FB633B681B7C1A00BB6BC7
:104320001343BB633B685B7C002B03D11F4B984757
:10433000031E03D0FB6B80221343FB633B689B7C13
:10434000002B04D0BB6B802292021343BB633B68FB
:10435000DB7C002B04D0BB6B802292001343BB6339
:104360003B681B7D002B04D0BB6B80229201134362
:10437000BB637B6B1A68FB6B1A437B6B1A607B6BAE
:104380005A68BB6B1A437B6B5A6000231800BD460A
:1043900013B090BD953C000035390000F168000075
:1043A000F13A0000296700006B360000093E00006A
:1043B00090B58BB000AFF860B9607A60FB68BA68FE
:1043C0001A60FB681B683B623B6A1B680222134051
:1043D00001D01C239CE03B6A1B680122134001D0E2
:1043E000052395E0FB681B6818004B4B98470300BA
:1043F000FB61FB690233BB61FB6914337B61012202
:10440000BB699A40130019000220444B98471023BF
:10441000FB181800424B98477B6824229A5C1023B3
:10442000FB181A707B69DBB21022BA181100180051
:104430003C4B98477B69DBB218003B4B98477B6845
:1044400024229B5C00211800384B98477B681B781E
:10445000012B05D13B6A1B680C221A433B6A1A6088
:104460002723FB1800221A7010E02723FB181B7863
:10447000FA6802339B00D318043300221A60272302
:10448000FB181A782723FB1801321A702723FB1810
:104490001B78062BE9D9FB680022DA62FB68002250
:1044A0009A62FB6800229A86FB6800221A86FB68E3
:1044B000362200219954FB68372200219954FB6869
:1044C000382200219954FB6803225A72FB680022AB
:1044D0001A71FB681B681322BC1818000E4B984712
:1044E00003002370124A1323FB181B7811001800D5
:1044F000104B98471323FB181A780F4B9200F9685A
:10450000D1507A68FB68110018000C4B98470300E3
:104510001800BD460BB090BDF13A0000AD3D000063
:10452000953D00000566000049660000A9380000BE
:10453000094A0000553B0000D4090020A1410000B9
:1045400090B587B000AFF860B9601900BB1D1A8044
:104550003B1D0A1C1A80FB6838229B5CDBB2052BD2
:1045600001D105237AE0BB1D1B88002B01D1172345
:1045700074E0FB68DB7901225340DBB2002B01D0F1
:104580001C236BE01623FB1800221A805EE0FB68F8
:104590005B79012B12D1C046FB681800314B98475C
:1045A00003001A0001235340DBB2002BF4D13B1D62
:1045B0001A88FB68110018002B4B9847C046FB680F
:1045C00018002A4B984703001A0001235340DBB21E
:1045D000002BF4D11223FB1800221A801523FC189B
:1045E0001223FA18FB6811001800214B98470300AA
:1045F00023701523FB181B78002B03D01523FB1801
:104600001B782BE01623FB181B881622BA18591C9E
:1046100011801A00BB689B181222BA181288D2B2F5
:104620001A70FB689B79012B10D11623FB181B888D
:104630001622BA18591C11801A00BB689B18122246
:10464000BA181288120A92B2D2B21A70BB1D1B8815
:10465000BA1D591E1180002B99D100231800BD46A8
:1046600007B090BD793F0000C93F0000A13F0000A6
:104670001140000080B586B000AFF860B960FB1D46
:104680001A70FB685B79012B01D015235CE0FB6895
:104690001B7A01225340DBB2002B54D0FB1D1B7848
:1046A000002B4AD0BB685B78002B3FD0FB6818001A
:1046B000274B984703001A0001235340DBB2002B1D
:1046C00007D0BB681B7801211800224B98470523AF
:1046D0003AE0BB681B78002118001E4B9847BB6866
:1046E0009B789AB2FB68110018001B4B9847FB6837
:1046F000DB7901225340DBB2002B24D0C046FB689B
:104700001800164B984703001A0001235340DBB2F0
:10471000002BF4D11623FB1800221A801623FA1856
:10472000FB68110018000E4B98470CE0BB681B7823
:1047300000211800074B984705E0BB681B78012152
:104740001800044B984700231800BD4606B080BDF2
:10475000793F0000413D0000C93F0000A13F00003B
:104760001140000080B586B000AFF860B960BB1D95
:104770001A80FB6838229B5CDBB2052B01D1052334
:1047800087E0BB1D1B88002B01D1172381E0162376
:10479000FB1800221A801423FB18BA1D12881A80F5
:1047A0005FE0C046FB6818003C4B984703001A00C6
:1047B00001235340DBB2002BF4D11623FB181B88D6
:1047C0001622BA18591C11801A00BB689B181A7857
:1047D0001223FB181A80FB689B79012B15D1162335
:1047E000FB181B881622BA18591C11801A00BB68C6
:1047F0009B181B781B021AB21223FB1800215B5E68
:1048000013431AB21223FB181A801223FB181A88BA
:10481000FB6811001800224B9847FB68DB791422D3
:10482000BA181421791809881180002B19D0C046B4
:10483000FB6818001B4B984703001A0001235340E4
:10484000DBB2002BF4D11023FA18FB68110018001A
:10485000154B98471423FB181A881423FB18013AA8
:104860001A80BB1D1B88BA1D591E1180002B98D1C0
:10487000FB685B79012B0BD1C046FB6818000B4B22
:10488000984703001A0001235340DBB2002BF4D1F8
:1048900000231800BD4606B080BDC046793F000029
:1048A000C93F0000A13F000011400000513F00003F
:1048B00080B584B000AF78607B681B68BB607B68A4
:1048C000DB6A1B78DAB20E23FB181A807B68DB6A7E
:1048D0005A1C7B68DA627B689B79012B13D17B6859
:1048E000DB6A1B78DBB21B021AB20E23FB18002115
:1048F0005B5E13431AB20E23FB181A807B68DB6AD7
:104900005A1C7B68DA620E23FB181B88DB05DA0D64
:10491000BB689A627B689B8E9BB2013B9AB27B68B4
:104920009A86C046BD4604B080BD000080B584B004
:1049300000AF78607B681B68FB60084B1B881A001F
:10494000FB689A627B685B8E9BB2013B9AB27B6884
:104950005A86C046BD4604B080BDC046EC09002062
:1049600080B584B000AF78607B681B68FB600A2369
:10497000FB1800221A80FB689A6A0A23FB181A8027
:104980007B685B8E9BB2013B9AB27B685A86C046BD
:10499000BD4604B080BD80B584B000AF78607B6850
:1049A0001B68FB60FB689B6A9AB20A23FB18D2055E
:1049B000D20D1A807B689B6A0A22BA181288D2B27A
:1049C0001A707B689B6A5A1C7B689A627B689B7929
:1049D000012B0DD17B689B6A0A22BA181288120A31
:1049E00092B2D2B21A707B689B6A5A1C7B689A6238
:1049F0007B681B8E9BB2013B9AB27B681A86C046CD
:104A0000BD4604B080BD000080B586B000AF020096
:104A1000FB1D1A70FB1D1A78964B9200D3587B61D0
:104A20007B691B683B617B6937229A5C7B69362115
:104A3000595C0F23FB180A401A703B691B7EDAB2DF
:104A40000C23FB181A803B699B7DDBB29AB20C23C6
:104A5000FB180C21791809880A401A800C23FB18CE
:104A60001B880122134038D07B695B79012B10D160
:104A70007B695B7ADBB2002B0BD17B6918007E4B24
:104A800098477B695B8E9BB2002B02D13B69012268
:104A90001A757B695B79012B1FD17B695B7ADBB26D
:104AA000002B1AD07B691800744B98477B699B8E4A
:104AB0009BB2002B11D13B6901221A757B695B7A8D
:104AC000DBB2012B09D17B69DB7901225340DBB2D8
:104AD000002B02D03B6902229A750C23FB181B881D
:104AE0000422134000D17EE03B695B8B9BB21A002D
:104AF0000423134022D07B695B7ADBB2012B14D0F4
:104B00007B6938221E2199547B6903225A723B69C2
:104B100005221A750F23FB181B780822134004D0B6
:104B20007B699B697A69100098473B699A6A0A23F6
:104B3000FB181A803B6904225A8354E07B695B7A34
:104B4000DBB2012B1ED17B6918004D4B98477B6966
:104B50005B8E9BB2002B46D13B6904221A757B69A0
:104B60003822002199547B6903225A720F23FB18C3
:104B70001B780122134036D07B69DB687A6910000C
:104B8000984730E07B6918003E4B98477B691B8E45
:104B90009BB2002B27D17B693822002199543B69B5
:104BA00004221A757B695B7ADBB2022B0BD10F23CF
:104BB000FB181B780422134015D07B695B697A6966
:104BC000100098470FE07B695B7ADBB2002B0AD1BB
:104BD0000F23FB181B780222134004D07B691B694A
:104BE0007A69100098470C23FB181B880222134097
:104BF00024D07B695B79012B20D17B695B7ADBB2A6
:104C0000012B1BD17B69DB7901225340DBB2002BE6
:104C100014D03B6902221A757B6903225A727B69A0
:104C20003822002199540F23FB181B7801221340CE
:104C300004D07B69DB687A69100098470C23FB1865
:104C40001B888022134010D03B6980221A753B6973
:104C500080221A760F23FB181B784022134004D0C1
:104C60007B695B6A7A6910009847C046BD4606B00A
:104C700080BDC046D40900202D490000B148000085
:104C8000614900009749000080B582B000AF7860AC
:104C90007B6800221A70C046BD4602B080BD00008D
:104CA00080B582B000AF02003960FB1D1A70FB1D99
:104CB0001B78012B0AD0022B0FD0002B14D10E4BE6
:104CC0000D4A91693A680A439A610FE00A4B0A4A11
:104CD000D1693A680A43DA6108E0074B064A116A6B
:104CE0003A680A431A6201E0172300E00023180023
:104CF000BD4602B080BDC0460004004080B582B011
:104D000000AF78607B6880221A707B6800225A703E
:104D10007B6801229A707B680022DA70C046BD462B
:104D200002B080BD80B500AF054B9B78DBB21A00A6
:104D3000022313405A1E9341DBB21800BD4680BDCA
:104D40000020004180B584B000AF78607B681B68AC
:104D5000FB60FB68DB695A1E9341DBB21800BD465D
:104D600004B080BD80B582B000AF7860C0467B687B
:104D70001800044B9847031EF9D1C046BD4602B047
:104D800080BDC046454D0000B0B58CB002AF786024
:104D900039607B681B68BB617B681B681800AB4B84
:104DA000984703007B617B6914333B6100237B627E
:104DB00000233B620A23FB1800221A801F23FB18E2
:104DC00000221A701E23FB1810221A703B681B8ADF
:104DD0008022D20193421CD08022D201934206DC71
:104DE000002B0DD080229201934224D035E0C022C6
:104DF000D201934228D080221202934212D02CE09A
:104E00001F23FB1800221A701E23FB1810221A7091
:104E100023E01F23FB1800221A701E23FB18082210
:104E20001A701AE01F23FB1800221A701E23FB18A9
:104E300003221A7011E01F23FB1801221A701E238F
:104E4000FB1810221A7008E01F23FB1801221A70A9
:104E50001E23FB1808221A70C0463B681A683B687C
:104E6000DB681A433B685B6913433A68128A134351
:104E70003A68127E120213433A682621525C5207A6
:104E800013437B621D23FB1800221A703B685B688A
:104E9000FB60FB68002B1ED08022520593424FD14D
:104EA0003B6827229B5C01225340DBB2002B46D09B
:104EB0003B681D6A3B69DBB21800654B98470100EF
:104EC0001D23FC180A23FB181A002800614B984781
:104ED0000300237033E03B6827229B5C002B14D037
:104EE0003B68186A3B68996A1D23FC181F23FB184E
:104EF0001D780A23FA181E23FB181B7800932B0039
:104F0000554DA847030023701AE03B681D6A3B69B2
:104F1000DBB218004E4B98471D23FC181F23FB18CB
:104F200019780A23FA181E23FB181B7800930B002C
:104F300001002800484DA8470300237000E0C04648
:104F40001D23FB181B78002B03D01D23FB181B7897
:104F500077E03B685B7E002B03D03B689A7EBB69A1
:104F60009A737B6818003D4B98470A23FB181A88F0
:104F7000BB699A817A6AFB6813437B623B6827228C
:104F80009B5C01225340DBB2002B03D07B6A0422DE
:104F900013437B623B685B7E9A023B681B7F5B022C
:104FA0001A433B685B7F1B021A433B6824215B5C0E
:104FB0005B041A433B6825215B5C1B0413433B6283
:104FC0003B689B7A1A003B6A13433B623B68DB7A7F
:104FD0001A003B6A13433B623B681B89FF2B0BD0D3
:104FE0007B6A8022520413437B623B681B891A0050
:104FF0003B6A13433B6208E03B68DB7E002B04D036
:105000007B6A8022D20413437B623B682C229B5C28
:10501000002B03D1124B9847031E03D07B6A8022DA
:1050200013437B627B6818000C4B9847BB693A6A54
:105030005A607B681800094B9847BB697A6A1A6006
:1050400000231800BD460AB0B0BDC046F13A0000CA
:10505000296700006B360000E9360000654D00004E
:10506000254D000090B593B000AFF860B9607A604C
:105070003B23FB1800221A70FB68BA681A60FB68B1
:105080001B687B63FB681B681800864B984703000E
:105090003B633B6B0233FB623B6B1433BB627B6B4A
:1050A0001B680122134001D00523F6E07B6B1B68CF
:1050B0000222134001D01C23EFE00122FB6A9A4038
:1050C000130019000220784B98472423FB1818007E
:1050D000764B98477B682D229A5C2423FB181A7024
:1050E000BB6ADBB22422BA1811001800704B984733
:1050F000BB6ADBB218006F4B98477B682D229B5C24
:10510000002118006C4B98477B68DA7AFB685A716B
:105110007B6824229A5CFB689A717B6825229A5CE2
:10512000FB68DA717B68DA7EFB681A727B681A7F2B
:10513000FB685A723B23FC187A68FB681100180060
:105140005E4B9847030023703B23FB181B78002B12
:1051500003D03B23FB181B789FE02023FB1818008B
:10516000574B98472023FB1800225A702023FB1826
:1051700000229A707B681A6B1023FB181A607B68F8
:105180005A6B1023FB185A607B689A6B1023FB182C
:105190009A607B68DA6B1023FB18DA604723FB18F0
:1051A00000221A702CE04723FB181A781023FB18F2
:1051B0009200D3583B643B6C002B09D14723FB186A
:1051C0001A78BB68110018003E4B984703003B64F7
:1051D0003B6C01330DD03B6CDAB22023FB181A7004
:1051E0003B6C1B0CDBB22022BA1811001800364BA6
:1051F00098474723FB181A784723FB1801321A7087
:105200004723FB181B78032BCDD90023FB630AE04F
:10521000FA68FB6B02339B00D318043300221A6038
:10522000FB6B0133FB63FB6B052BF1D9FB680022A1
:105230009A62FB6800225A62FB680022DA85FB68EA
:1052400000229A85FB68302200219954FB683122A4
:1052500000219954FB68322200219954FB683322C3
:1052600000219954FB681B682722BC1818000D4BBD
:10527000984703002370154A2723FB181B78110059
:105280001800134B98472723FB181A78114B9200EC
:10529000F968D1503B23FB181B781800BD4613B0AA
:1052A00090BDC046F13A0000A14C0000894C0000BE
:1052B0000566000049660000A9380000894D00001D
:1052C000FD4C000035390000F168000091560000E7
:1052D000553B0000D409002080B584B000AF786051
:1052E0000A00BB1C1A807B681B68FB607B68DB794B
:1052F00001225340DBB2002B01D01C2317E07B6856
:10530000DB8D9BB2002B01D0052310E07B681800D9
:10531000094B9847FB68BA1C12881A85C046FB687F
:105320001B7EDBB21A0002231340F8D000231800C2
:10533000BD4604B080BDC046654D000080B584B058
:1053400000AF786039607B681B68FB607B689B7985
:1053500001225340DBB2002B01D01C235EE07B68AE
:105360009B8D9BB2002B01D0052357E0FB681B7E71
:10537000DBB21A000423134001D105234EE07B6801
:105380001800284B9847FB685B8B9BB2DAB20B2363
:10539000FB183F210A401A700B23FB181B78002BC7
:1053A00036D00B23FB181B780222134004D0FB6875
:1053B00002225A831A2331E00B23FB181B780422A4
:1053C000134004D0FB6804225A831E2326E00B23DB
:1053D000FB181B780122134004D0FB6801225A837A
:1053E00013231BE00B23FB181B781022134004D05F
:1053F000FB6810225A83422310E00B23FB181B7812
:105400002022134004D0FB6820225A83412305E068
:10541000FB681B8D9AB23B681A8000231800BD46BA
:1054200004B080BD654D000080B500AF024B9847C9
:10543000C046BD4680BDC046792F000080B500AF94
:10544000024B9847C046BD4680BDC046CD2F0000E8
:1054500080B584B000AF78607B681B68FB60FB6838
:10546000DB695A1E9341DBB21800BD4604B080BD13
:1054700080B582B000AF7860C0467B681800044BEE
:105480009847031EF9D1C046BD4602B080BDC04654
:105490005154000080B586B000AFF860B960BB1D04
:1054A0001A80FB681B687B610F4B9847FB68DB8D9C
:1054B0009BB2002B03D00D4B9847052310E0FB68EF
:1054C000BA1D1288DA85094B9847FB68BA689A6258
:1054D000FB683322052199547B6901229A750023C8
:1054E0001800BD4606B080BD295400003D540000A0
:1054F00080B586B000AFF860B960BB1D1A80FB684C
:105500001B687B61164B9847FB689B8D9BB2002BF9
:1055100003D0144B984705231EE0FB68BA1D128880
:105520009A85104B9847FB68BA685A62FB6832222A
:10553000052199547B6904229A75FB681B7A002B1C
:1055400002D07B6920229A75FB685B7A002B02D01F
:105550007B6908229A7500231800BD4606B080BDFD
:10556000295400003D54000080B584B000AFF860BD
:10557000B960FB1D1A70FB1D1B78FA6802339B0093
:10558000D3180433BA681A60FB6830229B5C5AB2A5
:10559000FB1D1B78012199400B005BB213435BB2EA
:1055A000D9B2FB6830229954C046BD4604B080BDD4
:1055B00080B584B000AFF860B960BB1D1A80BB1D18
:1055C0001B88002B01D1172310E0FB68DB79012237
:1055D0005340DBB2002B01D01C2307E0BB1D1A880F
:1055E000B968FB681800034B984703001800BD46D4
:1055F00004B080BD9554000080B584B000AFF86061
:10560000B960BB1D1A80BB1D1B88002B01D117235D
:1056100010E0FB689B7901225340DBB2002B01D0E4
:105620001C2307E0BB1D1A88B968FB681800034BF0
:10563000984703001800BD4604B080BDF154000037
:1056400080B584B000AF78600A00FB1C1A70FB1CA8
:105650001B78002B02D0012B07D00DE00F23FB1885
:105660007A683221525C1A700BE00F23FB187A68BB
:105670003321525C1A7004E00F23FB1817221A70B2
:10568000C0460F23FB181B781800BD4604B080BD30
:1056900080B588B000AF0200FB1D1A70FB1D1A78A0
:1056A000A34B9200D358BB61BB691B687B61BB698C
:1056B0001800A04B98477B691B7EDAB21223FB18B7
:1056C0001A807B699B7DDBB29AB21223FB181221F0
:1056D000791809880A401A80BB6930229B5CBA6934
:1056E0003121525C1340DAB21023FB181A801223C6
:1056F000FB181B880122134044D0BB69DB8D9BB291
:10570000002B3CD0BB699B6A1B78DAB21C23FB18C8
:105710001A80BB699B6A5A1CBB699A62BB695B7938
:10572000012B13D1BB699B6A1B78DBB21B021AB237
:105730001C23FB1800215B5E13431AB21C23FB18C9
:105740001A80BB699B6A5A1CBB699A621C23FB18AE
:105750001B88DB05DB0D9AB27B691A85BB69DB8D83
:105760009BB2013B9BB2BA69191CD185002B09D1B0
:105770007B6901221A757B6902229A7502E07B69B6
:1057800001221A751223FB181B880222134011D024
:105790007B6902221A75BB693322002199541023B8
:1057A000FB181B880122134004D0BB69DB68BA696F
:1057B000100098471223FB181B880422134000D1C5
:1057C000BDE0BB699B8D9BB2002B00D1B4E07B692F
:1057D0005B8B9BB2DAB21F23FB183F210A401A7081
:1057E0001F23FB181B780822134007D01F23FB1828
:1057F0001F22BA18127808218A431A701F23FB1837
:105800001B78002B50D01F23FB181B78022213405B
:1058100007D0BB6932221A2199547B6902225A832C
:1058200036E01F23FB181B780422134007D0BB6906
:1058300032221E2199547B6904225A8328E01F23B7
:10584000FB181B780122134007D0BB6932221321B9
:1058500099547B6901225A831AE01F23FB181B7895
:105860001022134007D0BB693222422199547B6930
:1058700010225A830CE01F23FB181B7820221340B0
:1058800006D0BB693222412199547B6920225A8378
:105890001023FB181B880422134050D0BB695B699E
:1058A000BA69100098474AE07B691B8D9AB20E23B3
:1058B000FB18D205D20D1A80BB695B6A0E22BA189A
:1058C0001288D2B21A70BB695B6A5A1CBB695A62F1
:1058D000BB695B79012B0DD1BB695B6A0E22BA18DB
:1058E0001288120A92B2D2B21A70BB695B6A5A1C51
:1058F000BB695A62BB699B8D9BB2013B9BB2BA6983
:10590000191C9185002B1AD17B6904221A75BB6979
:105910003222002199541023FB181B8802221340C5
:105920000DD0BB691B69BA691000984707E0C046F3
:10593000D4090020715400007B6904221A751223D7
:10594000FB181B881022134010D07B6910221A7597
:105950007B6910221A761023FB181B881022134033
:1059600004D0BB69DB69BA69100098471223FB18A1
:105970001B882022134010D07B6920221A757B6976
:1059800020221A761023FB181B880822134004D00B
:10599000BB699B69BA69100098471223FB181B88E2
:1059A0000822134010D07B6908221A757B690822EF
:1059B0001A761023FB181B882022134004D0BB69E1
:1059C0001B6ABA6910009847C046BD4608B080BD42
:1059D00080B582B000AF78607B6801225A607B6836
:1059E00000225A707B6806221A707B6800221A72A5
:1059F0007B6800225A72C046BD4602B080BD80B5A9
:105A000082B000AF78607B6800221A70C046BD4645
:105A100002B080BD80B582B000AF78607B680022A4
:105A20001A707B6804225A707B6800229A707B6827
:105A3000802212029A607B680022DA707B68012261
:105A40001A717B6800221A737B6801225A737B6883
:105A500000229A73C046BD4602B080BD80B582B0B8
:105A600000AF78607B6803221A707B6800225A704E
:105A70007B6801229A70C046BD4602B080BD80B5E9
:105A800082B000AF78607B6800221A707B680022C9
:105A90005A807B6800229A807B6800229A717B681A
:105AA0000022DA717B6801225A707B6807221A7221
:105AB0007B683F225A817B6801221A737B6801222E
:105AC000DA817B6806221A82C046BD4602B080BDDC
:105AD00080B582B000AF0200FB1D1A70034AFB1DA7
